:10000000401D0120894B0000A5740200754B0000C3
:10001000754B0000754B0000754B000000000000A0
:10002000000000000000000000000000814C000003
:10003000754B0000000000001D4C0000754B0000D7
:10004000094E0000094E0000094E0000094E000054
:10005000094E0000094E0000094E0000094E000044
:10006000094E0000094E0000094E0000094E000034
:10007000094E0000094E0000094E0000094E000024
:10008000094E0000094E0000094E0000094E000014
:10009000094E0000094E0000094E0000094E000004
:1000A000094E0000094E0000094E0000094E0000F4
:1000B000094E0000094E0000094E0000094E0000E4
:1000C000094E0000094E0000094E0000094E0000D4
:0800D000094E0000094E00007A
:1000D8007BB972B90029BEBF00204FF0004106E08D
:1000E80008BF00281CBF6FF000414FF0FF3000F040
:1000F80057B8ADF1080C6DE904CE002909DB002BD7
:100108001ADB00F069F8DDF804E0DDE9022304B049
:100118007047404261EB4101002B1BDB00F05CF8AB
:10012800DDF804E0DDE9022304B0404261EB41015F
:10013800524263EB43037047524263EB430300F0C0
:100148004BF8DDF804E0DDE9022304B0404261EB3E
:1001580041017047524263EB430300F03DF8DDF87C
:1001680004E0DDE9022304B0524263EB4303704725
:1001780053B94AB9002908BF00281CBF4FF0FF3106
:100188004FF0FF3000F00CB8ADF1080C6DE904CE6B
:1001980000F022F8DDF804E0DDE9022304B070473E
:1001A800704700BF10F8012B11F8013B012A28BF46
:1001B8009A42F7D0D01A7047034611F8012B03F87A
:1001C800012B002AF9D17047034613F8012B002AA6
:1001D800FBD1181A013870472DE9F04786468C463E
:1001E8000846089E154674461946002B40F0C28002
:1001F8008542B2FA82F245D94AB1C2F1200300FA27
:1002080002FC2EFA03F3954043EA0C0C94404FEAA3
:10021800154EA8B2BCFBFEF8230C0EFB18CC08FB4D
:1002280000F943EA0C43994528D9EB1808F1FF3740
:1002380004D2994502D9A8F102072B44A3EB09037C
:10024800A4B2B3FBFEFC0EFB1C330CFB00F044EA2B
:100258000344A04214D92C190CF1FF3304D2A04254
:1002680002D9ACF102032C44241A43EA07401EB118
:10027800D440002334607360BDE8F0874746DDE76B
:100288006346F1E792BB431B01214FEA154EAFB21B
:10029800B3FBFEFC200C0EFB1C330CFB07F840EAFA
:1002A8000343984562D9EB180CF1FF3004D2984506
:1002B80002D9ACF102002B44A3EB0803A4B2B3FBB0
:1002C800FEFC0EFB1C330CFB07F744EA0344A74271
:1002D8004ED92C190CF1FF3304D2A74202D9ACF144
:1002E80002032C44E41B43EA0040C0E7C2F12003A8
:1002F80020FA03F1954090402EFA03F303434FEAA6
:10030800154EAFB2B1FBFEFC0EFB1C10190C0CFB1A
:1003180007F841EA0041884504FA02F422D969182D
:100328000CF1FF3004D2884502D9ACF1020029440F
:10033800A1EB08019BB2B1FBFEFC0EFB1C110CFBF0
:1003480007F743EA01439F420ED9EB180CF1FF313E
:1003580004D29F4202D9ACF102012B44DB1B41EAD3
:10036800004192E76046E3E76146F7E76046A3E7A6
:100378006346B7E7834206D916B9002108467BE7EA
:10038800C6E900E0F9E7B3FA83F78FB9834201D3EE
:10039800724508D8BEEB020460EB030301209C46BB
:1003A8001EB9002168E73846FAE7C6E9004CF8E7C5
:1003B800C7F1200CBB4022FA0CF41C432EFA0CF1B6
:1003C80020FA0CF3B84001434FEA14490EFA07F536
:1003D800B3FBF9F81FFA84FE09FB18300B0C08FB75
:1003E8000EFA43EA00439A4502FA07F240D9E318A5
:1003F80008F1FF3004D29A4502D9A8F1020023443B
:10040800A3EB0A0389B2B3FBF9F809FB183308FB1D
:100418000EFE41EA03418E452CD9611808F1FF33DD
:1004280004D28E4502D9A8F10203214443EA0040D0
:10043800A0FB0298A1EB0E014145CE46434602D3EC
:1004480006D14D4504D2B9EB020E68EB040301381E
:10045800002EA6D0B5EB0E0261EB030101FA0CFCED
:1004680022FA07F34CEA0303F940C6E9003198E79A
:100478004046C5E74346D9E72DE9F047064688B028
:100488000F4690462CF099FF4FF47A73A0FB034572
:1004980003FB0155E40B012F44EA45444FEAD535E7
:1004A80007D1294922462B46304625F0A0FF0020D7
:1004B80012E0D8F8047025483946FFF773FE70B18A
:1004C80023483946FFF76EFE48B1304621493A467F
:1004D80025F0A9FF6FF0040008B0BDE8F0872046BA
:1004E800294617A3D3E90023FFF7F2FD05460C467A
:1004F80010461946184A0023FFF7EAFD80460F46C2
:10050800104619464EF660220023FFF7E1FD8246A9
:100518008946104619464FF47A720023FFF7D8FD32
:10052800CDE902A9CDE90623CDE90401CDE900878B
:100538000A492A462346304625F059FFB7E700BF47
:10054800005C260500000000E9E20300FAE203006F
:10055800FDE2030006E3030080EE36001EE303001D
:100568002DE9F3411E461C4B83424FF000038B419B
:10057800044615460AD216A3D3E90023FFF7F8FD6F
:10058800164914460246284630F0F3F8144BB4FBDB
:10059800F3F24EF6602103FB12444FF47A78B4FB71
:1005A800F1F3284601FB13440E49B4FBF8F7009712
:1005B80030F0DFF846B10C4908FB1742284602B074
:1005C800BDE8F04130F0D5B802B0BDE8F08100BF19
:1005D800005C260500000000FF5B2605A71004004C
:1005E80080EE3600AD100400BC1004002DE9F04F79
:1005F80091B08407009302F004030293C2F3C2038C
:1006080003F10103DDF86880039205460E46059361
:1006180040F0BA81041D30B1072909D86FF01B00DA
:1006280011B0BDE8F08F01F007063444C6F10806A2
:10063800009B4FF00009591E4FF0040A4FF0FF339A
:100648000193CDF810904F46CB4653460DB1009A12
:1006580022600598002800F3E8809848009A8242B2
:1006680003D397488242C0F0E080039AA4EB050EBA
:1006780092074FEA9E0000F103810F2F00F2B1802C
:10068800002D00F0058107F140020DEB020C019AE4
:100698000CF8200C0CF8102C049801300490E7E0BA
:1006A8007A285DD84B280ED8472859D829282DD81C
:1006B800252852D054D820287AD02338D0F1000BDE
:1006C8004BEB000B74E04C382E2849D8DFE800F0DB
:1006D8007048484848484848484848484B48484867
:1006E800484848484859484B4B595959704B6D48E8
:1006F8007048184B184848827F4B48484B487F0041
:1007080000204FF0000B4FF0040A38E02A38C0B23E
:10071800012202FA00F010EA0E0F49D110F0625CD3
:100728002FD110EA020B43D06046013C5444B4FB7D
:10073800FAF40AFB04F4002D61D0A3EB050CA444E1
:10074800B4453FF66BAF002868D1042B47D158F861
:10075800043B2360043404232AE0019A013A0192FD
:100768004FF0000B24E011F8010C6C2834D111F87B
:10077800023C00206C2B8346C5D14FF0080A534633
:10078800D3E708F1070828F007080734F8E802ABB0
:1007980024F0070435B106982044B0423FF63EAF36
:1007A800C4E900AB08344FF0000B4FF0080A534679
:1007B80011F8010F002878D0BBF1000F7FF470AF5B
:1007C8002528F5D1019B013301934FF0010B4FF020
:1007D800040AECE7584694E700208346A5E7082B6F
:1007E80002D06FF015001BE708F1070828F007088A
:1007F800F8E80223C4E9002308340823D8E768B9D5
:10080800042B02D108F10408A4E7082BE9D108F168
:10081800070828F0070808F10808EDE7059A013AE3
:10082800059258F8042B009210E7039A900720D5F8
:10083800A4EB050E4FEA9E004FF0010CBEF5007FB9
:10084800CFD20F2FCDD8F5B107F140020DEB020E34
:10085800C0B2019A0EF8200C0EF8102CBCF1000F53
:100868003FF41AAF60F07F000EF8200C09F101097F
:100878000137C5F10802043406924FF6DA7E97E78D
:100888004FF0000CDAE7BCF1000F01D00136EFE7BA
:10089800029802360028EBD10098CDE90631FFF71F
:1008A80093FCDDE906310644E2E7631BB3F5806F8C
:1008B80097D23DB9A6F10804E018B1E69CBF030041
:1008C8003C120400029A28609B082B709DF8103097
:1008D800C2B1EB7085F80290B9F1000F05D008A8F5
:1008E8000022C5F1010C97420ED1C5F101030DF1AB
:1008F80020084FF0000A01930DF1300B574512D133
:10090800601B8DE66B70E5E710F8013B190608D50A
:100918000CEB040EB64503F07F033FF67FAE04F8F8
:10092800013B0132DFE7B9F1000F03D098F900204D
:10093800002A17DB029BD3B11AF80B2004F8012B0D
:100948000022019B18191044B0423FF667AE98F890
:10095800000004F8010B0099039220463BF0D8FAF6
:10096800039A14440AF1010A08F10108C6E798F845
:10097800002055F822300093029B45F82230009859
:10098800FFF722FC421CDCE76FF00D0048E600BFD1
:100998002DE9F04F95B090F802A0DDF878B00293F9
:1009A800CBF3C003044616460593894641B94578FA
:1009B80000780AEB800020444D4516D8A0EB0409C6
:1009C800E3780493BAF1000F02D01BF0010F15D1A0
:1009D800049B002B39D11EB1029A49462046B047E4
:1009E8004D46284615B0BDE8F08F471C3846FFF73E
:1009F800EBFB0130384409F10109DDE7227863682F
:100A080001920393019B9200069204EB8301002E4E
:100A180040F0D6804D460F4601EB0A080026B8453F
:100A280022D017F8013B009154F82300FFF7CCFBC4
:100A38001F9B0099013033B1209BB34282BF1F9B9B
:100A480023F8160001360544E9E71BF0020FC2D06F
:100A5800237801931F469B0006936368039304EB76
:100A68008701002E44D14D46049B01EB0A071BF079
:100A7800050F07EB43090BF002030CBF4FF0020A06
:100A88004FF0010A00934F45ABD017F8021B17F837
:100A9800013C54F823808F4B984502D38E4B9845E0
:100AA80007D3059B93B1039824F0B9FC70B1023DBC
:100AB800E9E7059B23B1039824F0B1FC0028F6D19F
:100AC8001BF0010F05D1A5EB0A05DCE7009B002B05
:100AD800D9D04046FFF778FB1F9B3BB1209BB34220
:100AE80081BF1F9A431C22F8163001360544CAE715
:100AF800BAF1000F69D01BF0040769D0D04600276F
:100B080010A8524600913BF003FA0099049A01EBB1
:100B18000A030093049B5B000893009B03EB4203CA
:100B280007930BF002030993079B009A934251D154
:100B380063781BF0020F07EB03020CBF4FEA580162
:100B480000211BF0010FD2B240F090801BF0040F7F
:100B580014BF404600206270A070E170029A0699A6
:100B680003932046B047051EFFF63BAF019B237059
:100B7800039B6370049B029A84F802A04146E370C9
:100B880010A8B047B0F10008C0F29F80069B029AF7
:100B98000098A9EB0A01C91A089BC91AB04700288E
:100BA800C0F29580A84408EB00054FF000090DF14C
:100BB800300BB9455CD30021029A0846B04710E7CC
:100BC80057460CA84FF000089BE75746D0469DE7CC
:100BD800B8469BE7009B13F8021B009313F8015CCF
:100BE8003C4B54F825209A4202D33B4B9A421AD3E5
:100BF800059B23B1039824F012FC002894D1099B8B
:100C0800E3B908F1500308F101020DEB030014AB3E
:100C180053FA82F208F1020800F8101C5FFA88F80B
:100C280002F8105C80E7059B2BB1039824F0F7FBD2
:100C380000287FF479AF1BF0010F08D007F15003AB
:100C48007A1C0DEB030707F8205CD7B26CE71BF0A2
:100C5800040F3FF469AF08F1500308F101020DEBEE
:100C6800030808F8105C5FFA82F85DE7002072E775
:100C780019F80B308DF82F3054F823A01F9B0BB3B5
:100C8800209B4B451ED91F9B33F81980029A0121DE
:100C98000DF12F00B047002819DB0544B8F1000F0B
:100CA80006D15046FFF790FA00F101081FFA88F8BC
:100CB800029A41465046B047002808DB054409F12E
:100CC800010976E74FF00008E0E7454689E6054662
:100CD80087E600BF9CBF03003C120400014B18606C
:100CE800704700BF1003002080B505460E46174622
:100CF80098460FF0C7FE03463BF042F9DFF818901C
:100D0800044649F80030424630463946A84754F868
:100D1800090003F069FF00BF0800000008B5EFF301
:100D28001183202383F31288BFF36F8F03F04AFFE8
:100D3800024824F09BFB26F0D8FBFCE765E10300A2
:100D480030B51546D0E9002389B0CDE900230C461B
:100D5800084A152102A823F09DFD002805DB142868
:100D680005DC01462A4602A8A04709B030BD6FF04D
:100D78000B00FAE78EE1030030B51546D0E90023F1
:100D880089B0CDE900230C46084A152102A823F0B2
:100D980081FD002805DB142805DC01462A4602A847
:100DA800A04709B030BD6FF00B00FAE793E10300EC
:100DB8002DE9F3410D460446012113481646A8477C
:100DC800002819DB5C27A04614F8010B38B90E4837
:100DD800324601212B4602B0BDE8F041184724F005
:100DE80022FE60B18DF805008DF8047032460221AC
:100DF80001A8A8470028E6D002B0BDE8F081324635
:100E080001214046F5E700BF98E1030030B585B001
:100E180003460C4615460C21084A01A823F03AFD62
:100E2800002805DB0B2805DC01462A4601A8A04757
:100E380005B030BD6FF00B00FAE700BFAA0104004F
:100E480030B585B003460C4615460C21084A01A862
:100E580023F020FD002805DB0B2805DC01462A4687
:100E680001A8A04705B030BD6FF00B00FAE700BF3E
:100E7800F70104002DE9F14F0A9E054688461D48F2
:100E88009146012132461C46984700282FDBDFF89F
:100E980068A0DFF868B00027B845324606D1184880
:100EA8000121234601B0BDE8F04F184728682146C4
:100EB800FFF77EFF00281ADB324601215046A04783
:100EC800002814DB334622464946284600F01AF823
:100ED80000280CDB08F1FF339F4202D3013710359D
:100EE800DAE7324601215846A0470028F6DA01B071
:100EF800BDE8F08F9AE10300151104009CE103009E
:100F08009EE10300F0B5C7880D46CE1941796D29D9
:100F1800144687B01A464FEA51034DD8212B1BD8E7
:100F28006FF0150059E0733B082BF9D801A151F86F
:100F380023F000BF0D100000E70F00008110000033
:100F4800290F0000290F0000290F0000290F0000B9
:100F5800290F000013100000223B142BE0D801A138
:100F680051F823F0FF0F0000290F0000290F00009F
:100F7800290F0000290F0000290F0000290F000089
:100F8800290F0000290F0000290F0000290F000079
:100F9800290F0000290F0000290F00006910000028
:100FA800F9100000FF100000290F000023110000B5
:100FB800DD100000EB1000007B2BB1D8722BB2D8EB
:100FC800662B0CD0692B28D05B2BA9D100928068A6
:100FD80023462A46314600F0AFF807B0F0BDEB5D76
:100FE80033B152480421234607B0BDE8F040184702
:100FF8004F480521F7E7E859214607B0BDE8F0401A
:10100800FFF7D6BE21463046F7E70092D0E9020145
:1010180023463246FFF72EFFDFE78368013B072BA5
:101028003FF67EAF01A151F823F000BF5510000034
:1010380063100000290F000069100000290F00004C
:10104800290F0000290F00006F100000E857214603
:1010580007B0BDE8F040FFF7F3BEE85F2146F7E7C9
:10106800E8592146F4E7D6E90001CDE90401214613
:1010780004A8FFF765FEB0E78368013B072B3FF63E
:101088004FAF01A151F823F0B1100000BF100000CC
:10109800290F0000C5100000290F0000290F0000CB
:1010A800290F0000CB100000E85D214607B0BDE81D
:1010B800F040FFF7ABBEE85B2146F7E7E859214669
:1010C800F4E7D6E90001CDE90401214604A8FFF7B9
:1010D80053FE82E72146304607B0BDE8F040FFF7EF
:1010E8002FBE2146304607B0BDE8F040FFF744BEAA
:1010F8007168E85977E70F4803920121A047002853
:10110800FFF66BAF039A7168E859A0470028FFF60D
:1011180064AF039A0748012165E7ED590392284611
:10112800FFF752F8039A014628465CE7A0E103005E
:10113800A5E1030098E103002DE9F14F0A9F1D4640
:10114800C388044652F803A01B480E463A460121BC
:10115800A84700282CDB637903F0FE03B62B08BFF1
:10116800A468204624F0F9FB4FF0000881460AF1F4
:10117800FF3BD04507D111483A4601212B4601B023
:10118800BDE8F04F1847E1883B462A46711A2046C9
:10119800FFF7B8FE00280BDBC34503D84E4408F11F
:1011A8000108E6E706483A460121A8470028F5DA8B
:1011B80001B0BDE8F08F00BFABE10300C6F8030043
:1011C8009CE1030010B586B00024CDE90334089BE8
:1011D800059303AB0093024BFFF74CFE06B010BD1E
:1011E8006B5A020008B54FF08053D3F8E8311B68FA
:1011F8009847082805D1044B0122DA6203F5005309
:10120800DB6A002008BD00BF0000094070B5044635
:101218002AF0D7FA002181F31188BFF36F8F032CCE
:1012280025D002D8022C08D070BD043C022CFBD873
:10123800BDE87040084609F063B908F089FE0E4D14
:1012480004464FF08056D6F8D83128469B68984710
:1012580004280346F7D014F0100000D103B9012088
:1012680008F0B4FB054B0122DA62DB6ADCE7BDE873
:101278007040012009F074B9004003400020094083
:101288002DE9F047DFF85880044607464FF001097A
:1012980014B93846BDE8F08794FAA4F5B5FA85F58F
:1012A80009FA05F32E0108EB05156FEA030A24EA8B
:1012B80003042B7B002BEBD058F806301B694BB985
:1012C8004644012273682846196807EA0A0724F089
:1012D800C4FCDDE7284698470028D9D1F0E700BFCD
:1012E8002CC2030030B51049104889B000222CF0F8
:1012F800ABF80F4D0F4900220023CDE90623002447
:101308000E23CDE90334CDE901440B4B00944FF48F
:10131800407228460FF05CF8084928460EF08AFF0C
:10132800204609B030BD00BF4913000060160020F8
:10133800A0110020C0E40020B1160000B1E10300B4
:1013480001480EF065BD00BF601000202DE9F04790
:10135800804621480F4624F058FC0646002833D022
:1013680000252846BDE8F087237B83B12368DB6826
:101378000BB120469847636883F8069023681B6979
:10138800D3B9636801221968204624F066FC013647
:1013980010345445E8D3B8F1000FE2D0002DDFD067
:1013A8002846FFF76DFF0546002FF7D000214FF4C0
:1013B800A4702BF048FFF1E7204698470028E0D0BA
:1013C80009FA06F31D43E2E7044CDFF814A00546CA
:1013D8004FF00109DDE700BFE09100202CC20300B7
:1013E8004CC20300014B53F82000704770C403003F
:1013F80008B5034608462BB1044A136000F0F8FC10
:10140800002008BD6FF01500FBE700BF14030020A3
:1014180010B5044C237813B903480EF0F9FC0123E6
:10142800237010BDECBF00206010002010B50446EA
:101438000B4824F0EAFB5CB1BFF35B8F094B53E820
:10144800001F013943E80012002AF8D1BFF35B8F6F
:1014580005482CF005F80548BDE810400EF0D8BC4A
:10146800D8910020DC910020601600206010002038
:101478000020064BBFF35B8F014653E8000F43E89B
:101488000012002AF9D1BFF35B8F7047D891002072
:1014980070B5FFF7EDFF084C084E0546B44200D37F
:1014A80070BD63685B792BB123685B6813B129460B
:1014B800204698471034F1E72CC203004CC20300C1
:1014C80010B5044C0449204624F0E0F8034B1C6096
:1014D80010BD00BFDC0E00205CC40300D0910020CA
:1014E8000E4A0F48002310B513700E4A13600E4AB7
:1014F8004FF400411360FFF77BFFFFF7E1FF00F0B7
:1015080081F90A4B0A4918468B4200D310BD1A1AB2
:101518005C681211013222711033F5E7EDBF00202B
:101528000F5C0200D8910020DC9100202CC203003F
:101538004CC20300014600220148002324F0C7B82A
:10154800DC0E0020014824F060B900BFDC0E00204A
:10155800024B0146186824F0ACB900BFD0910020B6
:10156800014824F0E1B900BFDC0E00202DE9F0416C
:10157800364B1878002866D0FFF7E4FF04460028A9
:101588005DD1334B334C1B68002B19DD2BF015FF55
:101598004FF47A72A0FB020302FB0131C30BD4E9BA
:1015A800002043EA41439B1A4FEAD13140F2E93225
:1015B80061EB0001934271F1000101D3FFF768FF6D
:1015C800D4E9003213F57A7342F10002C4E900321B
:1015D800BDE8F041FFF7C4BF6B685B793BB1217888
:1015E8004B0717D52B6821461B68284698471035A6
:1015F8004545F1D32046FFF7ABFFBFF35B8F164B92
:1016080053E8001F013943E80012002AF8D1BFF35C
:101618005B8FB6E720462688C1F3C20700F026FA9A
:10162800C6F382160246002EDCD00028DADB01233E
:101638003946284600F096F9B042D8D3D2E7074D8C
:10164800DFF81C80D4E7BDE8F08100BFECBF0020C4
:10165800D891002058160020DC9100202CC20300ED
:101668004CC2030070B50D4D297861B90120FFF710
:101678006DFE0B4C0B4EB44206D3FFF777FF0028E4
:10168800FBD101232B7070BD63685B791BB12368A4
:1016980020469B6898471034EDE700BFEDBF002057
:1016A8002CC203004CC2030000212DE9F047084674
:1016B800FFF74CFE044658B340F267684FF0000944
:1016C8003AF05EFC1B4B1C4A1B58136033B11B4B92
:1016D8001B68092B02DD1A480EF09AFB194FDFF838
:1016E80060A0002544B12046FFF7CAFD044618B99A
:1016F8004FF0FF384FF0FF39FFF738FF064628B99B
:10170800B5B942464B4650460EF0BCFB3546E9E7B4
:101718004FF0FF384FF0FF39D2E72B689B691BB1B8
:1017280000221146284698471035BD42F5D3E8E710
:10173800054DFAE708000000D4910020DC91002054
:10174800601000204CC203002CC2030013B51848D7
:1017580024F05BFA174B1B7873B1EFF31184202345
:1017680083F31288BFF36F8FFFF700FF84F31188AC
:10177800BFF36F8F02B010BD0F4B1B68002BF9D061
:1017880050B900220023CDE900230C484FF4004251
:1017980000230FF0EDFCEDE70928EBD107482BF00B
:1017A8005FFE074802B0BDE810400EF031BB00BF35
:1017B800DC910020EDBF0020D491002060160020AD
:1017C8006010002010B5064B1B6804469847214658
:1017D800A060044823F0FAFFBDE81040FFF7B6BF49
:1017E80014030020DC0E0020044A054B9B1AB1EBC1
:1017F800D30F34BF52F83100002070479CC103005A
:101808002CC203000B480C4B30B51B1A0B4CDB08E1
:1018180000210430994200D130BD10F831202568EC
:1018280002F0070225F007052A4344F8042B01318A
:10183800F0E700BF9CC103002CC20300240F002066
:10184800F8B50B4F0B4DED1B0646ED080024AC42D6
:1018580003D14FF0FF342046F8BD57F8340020B1CB
:101868003146FEF79FFC0028F5D00134EFE700BFB2
:101878009CC103002CC2030000282DE9F0478846CC
:1018880015461F461DDADFF89890264E4FF0000ADD
:10189800A6EB090636095446B24509F1100902D1EA
:1018A8002046BDE8F08759F80C0C3B4600792A46DB
:1018B8004146FFF7E1FF844238BF04460AF1010AB6
:1018C800EAE7194B194AD21AB5EBD20F26D203EB25
:1018D800C5031C79BC4228BF3C46154EC0B200EB7C
:1018E800400056F825300722824023EA020304F01C
:1018F8000702824013430021032223FA02F000F07A
:101908000700814202F1030238BF01461E2AF4D1C2
:1019180023F007030B4346F82530C1E70024DCE732
:101928002CC203004CC203009CC103002CC203005C
:10193800240F0020F8B5094D094BED1A06460F464D
:10194800ED080024AC4200D3F8BD002122B23B468A
:101958003046013424F079F9A4B2F3E72CC203002D
:101968009CC1030070B14168097973B1002A17DB83
:10197800CBB20C4951F8220003EB4303D84000F0E6
:10198800070070474FF0FF31EFE707490748401A53
:10199800B2EBD00F3ABF01EBC20108791846704785
:1019A80004207047240F00209CC103002CC20300B0
:1019B8002DE9F04F8FB0C1F34A2605900D469046A9
:1019C80006930C0D002E43D0002709AB4FF0040BF3
:1019D8004FF00A0A0193CDF808B00BABCDF800A080
:1019E8003A4631464046CDE90B770D97FEF7D0FFD2
:1019F800B0F5006FB146034633D2C0F30A0604F1CE
:101A08001700184420F0070080080793FFF792FD9D
:101A180066F35325044680B1079B134ACDF808B0F6
:101A280000F11001CDE90C3709ABCDE900A30B910A
:101A38000BAB49464046FEF7ABFF66F35325069BC2
:101A480005992A4620460FB0BDE8F04F24F038B972
:101A580004F1170020F007008008FFF76BFD04462B
:101A6800EBE70FB0BDE8F08F9D5C0200406820B145
:101A7800034BC01A40F38F0070474FF0FF30704798
:101A8800240F00200EB403B503AB014653F8042B12
:101A98000448019303F04CFB02B05DF804EB03B07B
:101AA800704700BF4F5E0200CA0605D48B064CBFC4
:101AB80002490349FFF7E6BF704700BFE6E50300A8
:101AC800C6E103002DE9F04F89B09B46149B0693AD
:101AD8009DF84CA0159B0593169B179E04930446EE
:101AE8000D469046BAF1000F00F09D8006F4807311
:101AF800079324F0A8F806F00209024600283ED011
:101B080091492046FFF7BEFF0746B9F1000F08D0FC
:101B180016F0440F35D18D492A462046FFF7B2FF0B
:101B2800074406F0010353B1894B8A4953F82A2028
:101B3800894B2046002A08BF1A46FFF7A3FF06F480
:101B48008073002B49D006F00803002B63D1B8F14D
:101B5800000F66D0814942462046FFF793FF0546AD
:101B6800069B3D44002B6DD1049B002B73D1F307DA
:101B780000F1E48031462046FFF796FFD8E007469B
:101B8800C3E7774B18680028CAD0764B4FF47A79A8
:101B98001B68B5FBF3F54FF46163B5FBF0F100FB8F
:101BA800115509FB05F54FF03C0CB1FBF3F203FBB3
:101BB8001211B5FBF0FEB1FBFCF300FB1E550CFB4C
:101BC800131109FB05F50091B5FBF0F56649CDE960
:101BD80001E52046FFF756FFA2E706F00803EBB140
:101BE800624B634953F82A202046FFF74BFF05460E
:101BF800B8F1000F05D0594942462046FFF742FF89
:101C08000544BBF1000FABD05A495A462046FFF7AE
:101C180039FF0544A4E74FF0000BE1E706F008059B
:101C2800E6E745469CE7BBF1010F069B06D1002B72
:101C380064D1049B002B7BD000250CE0002BF8D04E
:101C48004D485CE04D48069B4D49224623F0B6FBC3
:101C5800049B002B68D0DFF82C81DFF82C91049FBF
:101C68003146102F204628BF1027FFF71DFF4FF0E1
:101C7800000B5D4545DC059B49461A782046FFF771
:101C880001FF4FF0010B1BF0070F03D1414620461F
:101C9800FFF7F8FE5F453BD9059B494613F80B2033
:101CA8002046FFF7EFFE0BF1010BBBF1100FEAD155
:101CB800364920464FF0000BFFF7E4FE5A46059BD5
:101CC8009A5CA2F120015F2928BF2E2230492046C4
:101CD800FFF7D8FE0BF1010BBBF1100F1DD01BF065
:101CE800070F03D141462046FFF7CCFE5F455A4611
:101CF800E5D841462046FFF7C5FEEBE71F485546A5
:101D0800A1E741462046FFF7BDFE0BF1010BB0E706
:101D180020492046FFF7B6FEC5E7059B3B440593DF
:101D2800049BDB1B04939AD1BAF1000F7FF41FAF19
:101D3800204609B0BDE8F04F24F078B8064A0549B6
:101D48002046FFF79FFE15E7CEE10300D2E103002E
:101D580080C4030005010400C9E10300F7E10300A2
:101D6800E8910020E4910020DBE1030094C4030023
:101D7800FBE1030001E20300855E02004F5E020002
:101D8800395100000EE2030006E2030001010400DD
:101D9800D70C04000CE2030073B542F20F738B42B8
:101DA80028BF0B4605680F4A04460521684622F0FD
:101DB80071FD63680C495B6806460B22284624F0CF
:101DC80027F863683246694628465B6824F020F89D
:101DD800636806495B681B22284624F019F802B09C
:101DE80070BD00BFF70104002CE2030010E20300FD
:101DF800074A00210123904206D8064A01B9012367
:101E08001360054B1860704740085B000121F2E73A
:101E180040420F00E4910020E8910020F8B5074FF8
:101E28000D4604464618B44201D12846F8BD14F8B8
:101E3800011BBB6801485B689847F4E77CC0030056
:101E4800014B036000207047DCC40300F8B5054669
:101E5800EFF31186202383F31288BFF36F8F0A4BA9
:101E68000A4F1C6824B986F31188BFF36F8FF8BD39
:101E7800D4E90123002D18BF134613B13A6810782E
:101E880098472468EEE700BF209200201C920020AB
:101E980010B50E4BBFF35B8F53E8002F22F0010102
:101EA80043E800100028F7D1BFF35B8FD3070CD5A8
:101EB800074C23681878597823F08FFE0020FFF725
:101EC800C5FF29F060FC0023236010BD2892002084
:101ED8001C920020F8B5054600F070F92D4E18B98F
:101EE80033680BB90020F8BD00F06EF8691C044691
:101EF80004D0621C47D0AC42A8BF2C46EFF3118730
:101F0800202383F31288BFF36F8F3068224D002897
:101F18003BD000232860336087F31188BFF36F8FAD
:101F28002B68002BDED09F681C4E1D4A4FF40040E2
:101F38000021E7FB006100233046FEF719F928B1BC
:101F4800631C03D00121201A07F072FA0EF0A6FCD8
:101F58000120FFF77BFFBFF35B8F124B53E8001F95
:101F680041F0010143E80012002AF7D1BFF35B8F6B
:101F78002B6818785978FFF749F9FFF789FF0EF0B1
:101F8800A1FC0120AFE72C46B8E7214600F02CF968
:101F98002860C1E7189200201C92002020A10700A9
:101FA80040420F002892002001289FBF044B53F89D
:101FB80020300B60034B94BF185C0020704700BFB3
:101FC800DCC4030075E2030070B5EFF3118620232B
:101FD80083F31288BFF36F8F0A4B1B687BB1D3E979
:101FE80002452BF0EAF9201A65EB0101002901DA14
:101FF8000020014686F31188BFF36F8F70BD4FF044
:10200800FF30F6E72C92002010B5EFF3118420235F
:1020180083F31288BFF36F8F00230360064B416080
:102028005A6832B9C3E9000084F31188BFF36F8F8F
:1020380010BD10605860F7E730920020094A136815
:1020480040B143F00101F028116007D8136823F06C
:10205800020305E023F001031360F7E743F00303ED
:10206800136070472403002008B503490348FFF7AD
:10207800CBFF002008BD00BF45200000389200209B
:10208800022810B51AD10139C9B2FD290FD9EFF3C9
:102098001184202383F31288BFF36F8F14480368D9
:1020A80033B10133036084F31188BFF36F8F10BD20
:1020B80010490A6822F001020A60F2E70328F6D103
:1020C8000139C9B2FD29F2D9EFF31184202383F332
:1020D8001288BFF36F8F0648436813B1013343601A
:1020E800E1E704490A6822F002020A60F6E700BF45
:1020F800409200202003002002281AD10139C9B2D9
:10210800FD292ED9EFF31181202383F31288BFF321
:102118006F8F144A1368013B136023B181F3118850
:10212800BFF36F8F7047104A136843F001031360C1
:10213800F4E7032815D10139C9B2FD2911D9EFF304
:102148001181202383F31288BFF36F8F054A5368E8
:10215800013B5360002BE1D1034A136843F00203AB
:10216800E5E770474092002020030020022805D1AF
:102178000139C9B2FD291BD8002070470328FBD1BB
:102188000139C9B2FD29F7D901230A4ABFF35B8F88
:1021980052F82320BFF35B8F002AEDD1BFF35B8F8A
:1021A800054A1068BFF35B8FD84000F00100704704
:1021B8000023EAE74092002024030020084B094A44
:1021C800BFF35B8F1B68BFF35B8FBFF35B8F126836
:1021D800BFF35B8F1A4214BF01200020704700BF75
:1021E80020030020240300202DE9F74F0F4601A902
:1021F800FFF7DAFE0024804626464FF00C0BA04578
:1022080003D8304603B0BDE8F08FDDF804A0DFF84E
:102218003CE00F4A0BFB04F90AEB0905D5E9010379
:102228004FF4004C18440021E0FB0CE100237046F9
:10223800FDF79EFF8742E4D369781AF80900FFF793
:1022480095FF0134002818BF2E46D8E73F420F00FB
:1022580040420F0002460B4601480DF0DFBC00BFAC
:102268004C10002001480DF051BD00BF4C1000205B
:102278002DE9F0410E4B1C6805460E4617469CB1E9
:102288004FF0FF304FF0FF31FFF7E4FF636820465F
:10229800D3F8108032463B462946C0470446FFF72C
:1022A800E1FF2046BDE8F0816FF00104F9E700BFC7
:1022B800489200201FB5CDE901014FF0FF304FF0E3
:1022C800FF310392FFF7C6FF074B1C6824B9FFF7DD
:1022D800C9FF204604B010BD636820461B6801A9E9
:1022E80098472468F2E700BF4C920020024B002276
:1022F800C3E90022704700BF4C920020024B002225
:10230800C3E90022FFF7F2BF5492002038B50C4D04
:102318000C484FF0FF334FF0FF320DF07FFC2B7865
:102328003BB9FFF7EBFF23F029FE044610B9012360
:102338002B70002403480DF0E9FC204638BD00BF8F
:10234800EFBF00204C10002010B5044629F01CFAFD
:1023580003490246204624F04AF8002010BD00BF79
:1023680097E2030073B5134600220192044601AABE
:1023780058680A2101F00CFC019D95B920EAE07427
:102388004FF40046294640F2E7304FF47A720023B2
:10239800C4FB0601FDF7ECFE2AF055FF284602B003
:1023A80070BD2A460249204624F03DF8019DF5E714
:1023B800C3E2030008B5034A034924F018F80020D3
:1023C80008BD00BFB0E30300B7E30300F7B5174645
:1023D8000023054601AA0A21B868019301F0D8FB39
:1023E8001749C6B2284624F010F8019C44B1224689
:1023F8001449284624F017F8019C204603B0F0BD84
:10240800042E09D910493246284624F00CF82846EB
:1024180024F045F80124F0E77868FFF711FA021E66
:1024280007DA7A680949284623F0FDFF6FF015049A
:10243800E3E7334612B22146204623F006FCDCE7E8
:10244800DAE3030040E4030067E403007EE40300EA
:1024580007B500230090694604488DF804300EF053
:102468006DFC9DF8040003B05DF804FB995F020061
:1024780010B5044607F042F807490246204623F003
:10248800B6FF2046054923F0B2FF054821460EF065
:102498006FFC002010BD00BF09E5030028E503001C
:1024A800AD24000070B58EB004460D46D0F89C608F
:1024B8002AF009FE034639F063FD214A21491058E4
:1024C800214A002B18BF1A460092204A234684420C
:1024D80018BF0A4628461E4923F089FFD4E90A2373
:1024E800CDE90023284694F90E30227B194923F0C0
:1024F8007EFF06A9202220460DF0ACFE636E164929
:102508000246284623F073FF05A920462AF0E9FD74
:10251800024628B11149284623F069FF0EB070BD64
:10252800059B6422F11A4A430091B2FBF6F20C496A
:10253800CDE901622846324623F059FFEEE700BF95
:10254800080000000EE2030032E50300FBF7030079
:1025580035E5030041E503006DE5030084E503006C
:10256800B1E50300F0B5002591B00446294608AF4F
:102578001C2209A839F0F4FC134E1A2220213846EF
:1025880039F0EEFC214611480EF0F2FB07AA4FF491
:10259800006130462AF099FD079A0097C2F500615C
:1025A80064234B43DB0A05934FF40063CDE903131F
:1025B800CDE90132204606492B46A6F1400223F018
:1025C80016FF284611B0F0BDC0090120DD25000026
:1025D80002E6030070B50446D0F89C6088B00D464A
:1025E80007A92AF07EFD024628B10F49284623F0A4
:1025F800FEFE08B070BD20462AF065FD079B0096D8
:10260800F11ACDE90131094B64224A43002818BF69
:102618000346B2FBF6F20649CDE903622846224694
:1026280023F0E5FEE5E700BF84E5030032E503009B
:102638004BE6030038B513460546102258680021BA
:1026480022F0CAF90446FFF703FF38B90E492246BB
:10265800284623F0E8FE6FF0150038BD39F090FCED
:102668000A4B1B589C4204D10949284623F0DBFE3B
:10267800F1E720460DF0C2FF28460649224623F01E
:10268800B6FE0020E9E700BFAFE60300080000003F
:10269800CAE60300F2E6030038B5134605461022E1
:1026A8005868002122F098F90446FFF7D1FE38B99E
:1026B8000E492246284623F0B6FE6FF0150038BDB5
:1026C80039F05EFC0A4B1B589C4204D10949284644
:1026D80023F0A9FEF1E720460EF0AEF82846064999
:1026E800224623F084FE0020E9E700BFAFE603009E
:1026F8000800000031E7030057E7030038B5134628
:10270800054610225868002122F066F90446FFF7B2
:102718009FFE38B90E492246284623F084FE6FF002
:10272800150038BD39F02CFC0A4B1B589C4204D1CB
:102738000949284623F077FEF1E7204602F054FACB
:1027480028460649224623F052FE0020E9E700BF4A
:10275800AFE603000800000092E70300B7E70300B4
:102768002DE9F04F87B0044668460CF0F9FF009F4A
:10277800284ADFF8A4A0DFF8A4B0242303FB0077DD
:102788000821204623F026FE009DBD4203D30020E9
:1027980007B0BDE8F08F2B680BB11A7832B92B4619
:1027A8001F4A142101A822F075F801AB52460821EE
:1027B800204623F00FFE28462AF04DFA194B1A4AF4
:1027C800002808BF5B460821204623F003FE2B6A39
:1027D800A3B11E6896B1336883B1144A0821204614
:1027E80023F0F8FDB1464FF000083368104A43451E
:1027F80006D8104A0821204623F0ECFD2435C4E70A
:1028080059F8043F0821204623F0E4FD08F10108A7
:10281800EBE700BFFEE703000DE80300F5E7030060
:1028280008E80300EFE703007EEE030012E8030068
:1028380004010400E6E503002DE9F041144688464A
:10284800074610226068002122F0C6F8B8F1020F8E
:10285800064607D8254A20230821384623F0BAFD22
:10286800336816E00A220021A06822F0B5F8C5B244
:102878001E4A2B460821384623F0ACFDB8F1030F59
:102888001AD1102D0CD0202DEAD0082D0BD1337879
:10289800DBB2174A0821384623F09CFD002009E0E6
:1028A80033889BB2F5E73846124A082123F092FD97
:1028B8006FF01500BDE8F081E0681022002122F0D9
:1028C8008BF80D4A034604460821384623F082FD5A
:1028D800102D06D0202D07D0082DE4D1E4B2347095
:1028E800DCE7A4B23480D9E73460D7E753E80300C3
:1028F8007EE8030068E803008FE803002DE9F04F45
:1029080087B000230193524BDFF848A1914601227A
:10291800074688461A6002F0A7FC4FF0FF352026CC
:102928002C4649465246404602F0C2FC411C06D19C
:102938006A1C41D14849384623F075FD17E07328D1
:102948001AD0772828D0612811D1DFF810B101AA50
:10295800DBF80000102101F01BF9019B0546002B54
:10296800DFD0DBF800203E49384623F05CFD6FF0ED
:10297800150007B0BDE8F08FDFF8E0B001AADBF87A
:102988000000002101F004F9019B0446002BC8D087
:10299800DBF800203349E7E7DFF8C0B001AADBF82D
:1029A8000000002101F0F4F8019B0646002BB8D086
:1029B800DBF800202C49D7E7631C01D12B49BAE783
:1029C8005FFA86F8C6F3C406002C3FD002AB29464E
:1029D8001A46A6EB050C0CE0B8F1100F1DD0B8F1A3
:1029E800200F20D0B8F1080F2AD108781870314488
:1029F8003344A64203D80CEB01001028ECD9102C64
:102A0800A14628BF4FF0100929464B46384600F02A
:102A180097FF1035A4EB0904D6E7088880B2187030
:102A2800000A5870E3E7086818704FEA102E83F818
:102A380001E04FEA104E000E83F802E0D870D6E7A6
:102A48000B4A0821384623F0C5FC90E7204690E75A
:102A580098030020DDE80300E4E80300189600204E
:102A6800A3E80300B6E80300C9E8030001E903008E
:102A780068E8030070B50F4E044633780D4671B10F
:102A880023B1BDE870400C4923F0CDBC012333705D
:102A98000A49204623F0ABFC0123337004E083F09D
:102AA80001033370002BF3D129462046BDE870405E
:102AB80023F013BDF0BF00201BE9030056E9030013
:102AC80070B504463B480378182B02D10B78112BBC
:102AD80031D0013A0B468D18AB4225D18B5C0A7870
:102AE8000370A2F13003092B334C04D922F02003E0
:102AF800413B052B04D823683049CA54013323606D
:102B08002368022B33D110222C48002121F064FFC6
:102B18002B4A136803F8010B13602A4A1368013320
:102B280013600023236022E013F8016B182ED3D121
:102B38001E78112ED0D1234D23492A68204623F030
:102B480056FC20460021FFF795FF204B187870B9F6
:102B58001F4A2B681168042B0ADC08B111602B602E
:102B680013F003010BD1126813681BBA136070BD10
:102B7800086800BA41F8040B043B0120EBE75B420C
:102B880003F0030358BF5942022904D1126813887D
:102B98005BBA9BB2EAE70329E9D11068026811041D
:102BA800C2F3074301F47F010B4302F47F4213434E
:102BB8000360DCE7F1BF00205C920020F3BF002037
:102BC800689200206092002080E90300F2BF002094
:102BD800649200202DE9F84F0C462B49DFF8AC80B1
:102BE800DFF8AC90DFF8ACB000230B602A4988F816
:102BF800003006460B601546012C2F4655F804AFE9
:102C08001ED902224946504639F0E7F880B99AF8A9
:102C18000220003A18BF012292442049022250465D
:102C280039F0DBF830B9012388F80030013CE3E7DC
:102C38000022F1E749465046FDF7B4FAA8B904372F
:102C480000221146786821F0C7FE154B0022114674
:102C58001860786821F0C0FE124B1349186030469E
:102C6800FFF708FF0020BDE8F88F9AF800202D2A0A
:102C7800E6D19AF80120002AE2D052465946304659
:102C880023F0B5FBD2E700BF5C920020F2BF002022
:102C98009AE90300A0E90300609200209DE903007F
:102CA8006892002064920020C92A000007B50948EC
:102CB80029F0D1FF58B1084A06491268074801238C
:102CC800009300F0A3FE002003B05DF804FB6FF052
:102CD8001200F9E77CC00300E4C503004CC20300FE
:102CE80010B54468C4E90012A36042681346402145
:102CF80053F8404B53625163002302F13801C2E993
:102D08000413C2E90A33C2E90633082113631162C6
:102D1800C2F8B830A36823B19B6C13B104492046AC
:102D28009847A3689B6A0BB120469847002010BDBE
:102D38007F600200004870474CC2030010B58168EC
:102D48000446183101F088F9A168034A2046183171
:102D5800BDE8104001F026B934EB030038B58368AC
:102D6800D3F87832DB0704461DD4C06924F0EDF8A7
:102D7800606803685B689847054620B9E06824F0F6
:102D8800B9FAA3681D75A3685B6C13B12946204680
:102D98009847A36839F0F4F80022C3F82023034BBE
:102DA800185801F021FF6FF00F05ECE7080000004C
:102DB800014923F02ABA00BFE6E50300F7B5044647
:102DC8008068D0F878325A070D4605D5002123F0DF
:102DD80044FAE06824F060FAE368DB6873B9002D10
:102DE8003BD0A66806F15607384623F01BFA0028A0
:102DF80035D0394606F5AB70FDF7DEF9A268E06814
:102E08000DF106035632294624F049FA58B9A0684C
:102E180000F5AB715630FDF7CFF9A068563023F0B6
:102E280001FAADF80600204623F04AFEA368D3F85D
:102E380074329B0603D50B49606923F0E6F92046F6
:102E480000F00CFFA268BDF80630A2F85230A26864
:102E58002046A2F8503023F098FD03B0F0BD86F864
:102E68005601CBE7D4C303002DE9F04FA7B00446C1
:102E78005422002111A839F073F80023CDE9053355
:102E8800A36820465633029323F021FE204623F000
:102E980065FD10B96069FFF78BFFA0681422002157
:102EA800183039F05DF8204623F0FEFCA168E06890
:102EB800B1F850205631002624F028FA204624F094
:102EC800B7FA4FF0FF37B24603960DF14408B34600
:102ED8003546B146DDE90532012A6DD0132B6ED88F
:102EE8005FBBBBF1000F0AD0204624F0C2FAA268EB
:102EF8001423563211A90DEB030023F054FBB9F14A
:102F0800000F0CD099F81130FE2B08D1059B26AA8A
:102F180002EB830252F8542C0AB101330593A068DE
:102F2800059D436A002B40F0B680CEB1C3699E422E
:102F38002DD00D9600F1180524E0029A022341468F
:102F480006A823F030FB0699D8F80420029203461D
:102F580031B101290AD148B16D4A204623F069FEF2
:102F68006FF00705284627B0BDE8F08F059B002BBA
:102F780034D0D8F8000001F08FF898B166B1A56890
:102F88000D9618350CAE0FCE0FC533682B60204652
:102F9800FFF7D4FE0125E5E75E4A0121204623F02C
:102FA80048FEDDE7059BCBB1D8F80020294620462E
:102FB80001F014FA022809D1059B132B91D9069B1D
:102FC800022B8ED1544B554A0121C6E7032805D060
:102FD800059B013305934FF0010B7BE7039B33B946
:102FE800D8F8001007AA484623F0D4FB054608F194
:102FF8000408013F9DB3EB68BBF1000F08D0F3B1A3
:10300800204623F064FD204623F0BFFC444AC4E771
:10301800ABB1A368DDF814A0AE4603F1180CBEE806
:103028000F00ACE80F00DEF80030CCF80030AB68D9
:103038002BB96B7CFE2B04BF2F7C07F1FF37D5F82B
:1030480004C0BCF1000F08D0AE46BEE80F000CAEBD
:103058000FC6DEF8003033606646A94603E0059BDC
:1030680053B101230393069B17B9022B7FF432AFA8
:10307800059B013305932DE7A368DB6A13B1DB6871
:10308800002BEED1274B0093274A119B01212046A4
:1030980023F0CFFDE5E790F82830A5EB0A05BBB192
:1030A80090F829104FF6FF72FF2918BF0A469D4273
:1030B80002D313449D420BD983691C4A012120463F
:1030C80023F0B7FD2046FFF739FE6FF0150549E7F5
:1030D800012123F0B7F8A06800F5437023F0D6F873
:1030E800A36811AA294602EB8A025B6A2046984720
:1030F8000546A0684FF0FF324FF0FF3300F54370EC
:1031080023F06BF8A068002123F09CF82AE700BFA1
:1031180042EB030056EB0300B7EB030099E403000E
:1031280074EB0300A3EB0300ABEE0300DBEB03003F
:1031380010B5836802221A7583689B6C0446BBB974
:1031480023F022F88368D3F87832DB040BD5032107
:10315800084B094A23F06DFDA0686FF4805100F513
:103168001E7023F02BF82046BDE8104000F0FCBE8E
:1031780010BD00BFF6EB0300050104002DE9F04F78
:1031880004468068B1B0012100F51E7023F007F8ED
:10319800A3681B7D022B20D100230993A3686068D4
:1031A8009E6C03681D6909AB0EB310221BA9A847C2
:1031B800099B93B1A068012123F044F8099A1BA93F
:1031C8002046B047A068002123F03CF8A3689B6C18
:1031D800002BE3D12046FFF7ABFFA0686FF0010199
:1031E80000F51E7031B0BDE8F04F22F0E7BF0122B4
:1031F8000DF12301A847099B002BEED09DF9232050
:103208009DF82330A068002AC8DB427D032A00F21B
:10321800F482DFE812F0040075028C02F2020D2B32
:1032280067D00A2B43D0B0F87822092B6FF3CA0273
:10323800A0F8782272D029D8002B00F00381082B3F
:10324800A06800F0E9810246D2F87412890740F1BB
:10325800F980013B162B00F2F580DFE813F0B70286
:10326800FA01FE01F601B1021002F300F300F300C7
:10327800F30014021802F3002D02F3003202F300E7
:10328800F300F300F3003402F30049021B2BA0689B
:1032980041D07F2B00F0CC81A3F120015E290246AA
:1032A800D2D8012122F0D9FF9DF82310B8E0D0F838
:1032B8007822C2F3C7022AB1D0F87822C2F3C70233
:1032C8000A2AC0D1B0F8782263F3CA02A0F878229B
:1032D800A568B5F85010C1B9284622F0BEFFE068CD
:1032E80023F0DAFF6069FFF763FD2046FFF720FF50
:1032F80054E7D0F87822C2F3C702002AE2D0D0F807
:103308007822C2F3C7020D2ADBE72046FFF7ACFD9F
:10331800C5F82403E9E70123437593E0A068D0F8D2
:1033280074329B0740F18E80012122F096FFA0683D
:10333800B0F85030FF2B00F08580B0F8522000F133
:10334800560100F5AB7038F0E3FDA368B3F85220DE
:103358001344002583F85651A2681BA9142302F5CB
:10336800AB720BA823F01FF90B9914296AD830AB5C
:1033780003EB810343F8545CA368B3F85220002A96
:1033880052D0134493F85530202B02D0093B042B1C
:103398004AD800294BD100250A950A9B30AA02EB8E
:1033A8008303002653F854AC504622F03BFFB34643
:1033B8008146B046374616AA3946284600F0AEFB85
:1033C8000346002842D1012E68D10A9B30AA02EB9D
:1033D800830353F8540C22F025FFA26806461832DE
:1033E8004146284600F09AFB0568284622F01AFF55
:1033F800864205D0821B92B2A919204623F060FCB0
:10340800A068B0F85230034493F85630202B34D0DB
:10341800093B042B31D9D0F87432DF0732D420218C
:10342800204600F069FD0DE00129B4D901390020DA
:103438000CAB009301900AAB1BAA23F0D6F9054602
:103448000028AAD1606923F04EF8A7E61B68039309
:103458004A465146184638F0C0FC60B9039B1846E6
:10346800FCF7B2FE584538BF58461FFA80FB002EBD
:1034780008BFB846013601379DE70121204623F0F1
:10348800B8FADFE7002122F0F2FE2021204600F002
:1034980033FDA068012122F0EAFED3E70490D1D9D8
:1034A8000A9A30AB03EB8202C14652F8543C0393AC
:1034B800184622F0B7FEA268049B0590A2F8403097
:1034C8000496A26849461832284600F027FB039B59
:1034D800D0F800A009F101094BB1BAF1000F06D0EC
:1034E800059A1946504638F078FC0028E9D1A168B9
:1034F800BAF1000F4ED1A1F840A0049B013B049300
:10350800DFD16069FFF754FC204600F02DFD0A9BCF
:1035180030AA02EB830308F1010A53F8540C22F095
:1035280081FE414611AA8146284600F0F7FA07466F
:10353800A0683968FF2200F5AB7038F060FC3B6882
:1035480003934FF6FF77B84616AA514628460AF164
:10355800010B00F0E3FA002852D0A168036801F2D9
:103568005511002211F801EF985C704503D110B194
:1035780001324245F6D1B9F1000F01D04A4507DBC7
:10358800BA4206F1FF36A8BF3A46012E97B237D0A5
:10359800DA46D9E79A48069122F044FE069907913F
:1035A8004A8F00EB0B07BFB2121A504692FBF7F294
:1035B80092B2069222F036FE0799069A3F1AB1F89F
:1035C800400000F1010CA1F840C0B0FBF2F102FB91
:1035D800110080B2BFB260B9894B8A4ACDF800A009
:1035E8000621204623F025FB3946204600F020FB23
:1035F80083E7854A53460621204623F01AFBF3E762
:10360800002F3FF41FAF0399A7EB090292B2494478
:10361800204623F055FB15E7D0F874329E077FF556
:1036280011AF012122F019FE204623F06AFB09E7B9
:10363800D0F874329D077FF505AF012122F00DFE09
:10364800A368D3F874321807EED4204623F03AFB67
:10365800F8E6204623F044FAF4E6204623F037FA49
:10366800204623F07BF910B96069FFF7A1FBA06839
:10367800012122F0F2FD2046FFF75AFDE2E620463E
:1036880023F037FADEE6204623F03EFADAE6D2F8EF
:1036980074329F0603D55D49606922F0B6FDA368C0
:1036A800D3F874329E0603D55949606922F0ADFDFE
:1036B800204600F059FCC5E600212046FFF77EFBB6
:1036C800C0E60121F9E7204623F0FAF9204622F066
:1036D8005BFD0121A06822F0C0FDA368D3F8743215
:1036E8009D067FF5AFAE4B49606922F08EFDA9E6D5
:1036F800204600F02DFBA068012122F0AEFDA1E6D6
:103708005B2B01D1022307E6D0F87422900706D577
:10371800622B08D14FF0FF31204623F093F9A368BC
:1037280000225A758EE6662BF9D10121F4E70022B2
:103738004275A268D2F8741289077FF52FAD313B24
:103748001B2B3FF67FAE01A151F823F0D1370000C3
:10375800DD370000F1370000C53700004D340000A8
:103768004D3400004D3400004D3400004D3400004D
:103778004D3400004D3400004D3400004D3400003D
:103788004D3400004D3400004D340000CB360000AD
:10379800C1360000873600005B3600004D3400005B
:1037A800C93700004D340000D53700004D34000003
:1037B8004D3400004D340000E137000003235375F9
:1037C800204623F084F93DE603235375204623F071
:1037D80077F937E603235375A068D0F8741201F01F
:1037E800010181F0010156E603235375A368D3F85C
:1037F80074329B077FF526AE27E700238CE500BFD0
:103808000DE203003AEC030005010400D9C30300EC
:10381800DEC30300D4C303002DE9F04104468068E9
:10382800154600F51E70002937D04FF4804122F06C
:10383800B6FCA368DD646068036800219B6898474C
:10384800002851D1204622F048FD00284CD1274EAF
:10385800274FDFF8A080A06800F52F704FF0FF32E7
:103868004FF0FF3303210DF0EDFC0546A068CDB104
:1038780040F26762002300F5437022F0AEFC98BB6B
:1038880020462B461C4A012123F0D3F9A068BDE845
:10389800F04100F5437022F0F9BC6FF4804122F04A
:1038A8008DFCC6E74FF0FF334FF0FF3200F5437051
:1038B80022F093FC32460221204622F090FC3A4640
:1038C8002946204622F08BFC20464246012122F060
:1038D80086FC606803685B6903B19847A06800F5D7
:1038E800437022F0D3FCB6E7BDE8F081652D0000F7
:1038F800853100009962020040EC030010B50B49C5
:10390800044622F074FD2046094922F070FD204645
:10391800084922F06CFD2046074922F068FD204640
:10392800064A002100F03EFB002010BD57EC0300C2
:1039380095EC0300F4EC030048ED0300E2ED03000E
:10394800F8B517461E460A462949044622F04FFD97
:103958003EB33A782749204622F049FD01256A07F7
:1039680003D12549204622F042FDAE421ED97A5D98
:103978002049204622F03BFD0135102DEFD11F498B
:10398800204622F034FDB6B91B49204622F02FFD0F
:103998000125AE422B4610D81749204622F027FDB4
:1039A80015E01749204622F022FD0125144920463A
:1039B80022F01DFDE0E700252B46FA5C1149A2F133
:1039C80020035F2B28BF2E22204622F010FD013550
:1039D800102D06D06B07DCD10749204622F007FDE1
:1039E800D7E720460849BDE8F84022F000BD00BFEF
:1039F800F8ED030006E203000EE2030001010400F3
:103A08000CE20300D70C0400FFED03002DE9F0439E
:103A1800044680688846D0F8201389B015461F46AA
:103A2800002960D14FF44A7238F09AFAE06823F01E
:103A3800E5FCA06800F5437029F0BBF94FF42F7935
:103A48004FF41F76A068304429F048FEA068002291
:103A5800831901214844103629F012FEB6F52F7F4C
:103A680009F11409EED1A36900261E60A06802219D
:103A780000F51E7022F093FBA36850225A87A368B2
:103A880018221A872168204622F0DBFCA368174A0F
:103A980066F38205C3F874526068036841461D687E
:103AA8002346A8470546D0B9A36801221A75D4E968
:103AB8000A0100220023CDE906230E230393109B5D
:103AC8000495CDE901730094094B4FF446620CF05C
:103AD8007FFCA368C3F82003616A0CF0ABFB28469F
:103AE80009B0BDE8F0836FF07705F8E739620200A6
:103AF8002138000010B5044613460A460146064818
:103B080001F016FB23691B7923B12046BDE810405C
:103B180022F0E9BC10BD00BF0765020038B50B46AE
:103B2800154648B91449154A521AB3EB920F05D2F3
:103B380051F82350284638BD84680CB90025F9E7A8
:103B48000F4A94420AD30F4A944207D21846226871
:103B5800294690472B68002BECD1EFE70A4A94429C
:103B680002D30A4A944205D3246814225343E51821
:103B7800E358F0E70133F8E77CC20300A8C203006A
:103B8800D4C30300D4C30300A8C20300D4C30300F2
:103B9800F7B503782D2B0446164605D16FF01503AB
:103BA8003360002003B0F0BD38F0EAF90B4F002372
:103BB8000546C3510A46204601A920F00DFFEB59DE
:103BC800222B02D16FF02103EAE7002BE6D1019BFB
:103BD800A342E3D01B78002BE4D0DFE70C00000001
:103BE8008368D3F874329B0603D50249406922F0F2
:103BF80096BE7047E4C30300014922F090BE00BF9F
:103C0800E6E503000A1E0DDC0ED042238168D1F8D8
:103C18007412890608D5002A04494069B8BF52427F
:103C280022F07DBE4123F1E7704700BF1BEE030081
:103C38000A1E0DDC0ED044238168D1F8741289065F
:103C480008D5002A04494069B8BF524222F067BE2D
:103C58004323F1E7704700BF1BEE03002DE9F0474F
:103C68008568DFF86890044605F15600FCF7ACFA61
:103C7800002395F83C7086B29846A268558FED1BD4
:103C8800B54209DB002E1FDD563360691049BDE8D7
:103C9800F0471A4422F043BE1D442A44563392F892
:103CA80056A082F85680A26860691A44494622F0F4
:103CB80036FEA3682B4483F856A0A3685B8FDB1BF2
:103CC800F61A00272B46D8E7BDE8F08799E40300E9
:103CD8000501040008290A4617D8836893F83E109E
:103CE800914212D083F83E208368082AD3F87432B0
:103CF80005D0990609D50549406922F010BE9B06F2
:103D080003D50349406922F00ABE704722EE03003A
:103D1800E9C3030038B50D4609780446FFF7DAFF12
:103D28006A78072A11D8A36893F83F1091420CD0FB
:103D380083F83F20A368D3F874329B0605D56069E1
:103D48000249BDE8384022F0EABD38BD2BEE030039
:103D5800F8B58368B3F850200446002A55D0B3F864
:103D68005210002951D0553103F156050B4418461D
:103D7800A84206D3014611F80169202E3CD0A8427A
:103D88003CD286B29DB2AB1B9BB2591C471CD21ABF
:103D98000144384638F0CAF8A268B2F85030711BAE
:103DA80013FA81F3A2F85030A368B3F850201344F3
:103DB800002283F8562009B2204622F01AFEA36892
:103DC800D3F874329A0603D51049606922F0A7FD2A
:103DD8003B460F4A0821204622F02BFF2046FFF7DA
:103DE800FFFEA368D3F874329B060ED560690949B3
:103DF800BDE8F84022F093BD0846B9E7014611F83E
:103E08000169202EBDD00846B9E7F8BDEEC303000E
:103E180005010400F2C303002DE9F84F04460F46DC
:103E280090460AB1FFF7DCFEA668D6F87432B6F8F9
:103E380052505B0724D505F156003044FCF7C4F90D
:103E48002A4E0546B5B9A368B3F85020A3F8522006
:103E5800A06822F071FD30B1B8F1000F00D017B1A1
:103E68006069FFF7C9FE7942204609B2BDE8F84FFC
:103E780022F0BFBD6069314622F051FD013DE1E706
:103E88003046FCF7A1F9B6F85090738F19FA80F90B
:103E980015FA80F0B0FBF3F2B9FBF3F39A42AA46A5
:103EA8001BD0134DA3684845CDDA5A8FB0FBF2F307
:103EB80002FB1303461C13B96069FFF79DFEA36854
:103EC8005344204693F856300AF1010B2A4608213C
:103ED80022F0AFFEDA463046E4E75635054A731954
:103EE8000821204622F0A5FEADE700BFFBF703003E
:103EF800D70C04000501040013B583688DF807107A
:103F0800D3F874220446D00725D5B3F85210B3F875
:103F180050208A421FD0481CA3F852000B449DF839
:103F2800072083F85620A368D3F87412890710D5A0
:103F3800D3F8743260690B4913F0040F18BF2A22B2
:103F480022F0EDFC204622F009FD10B16069FFF770
:103F580053FE02B010BD01220DF10701204622F0E8
:103F680075FEF6E7D70C040010B504468368094AC5
:103F7800022122F05EFEA368D3F874329B0707D5AE
:103F88002046FFF76BFE2046BDE8104022F00CBD2E
:103F980010BD00BF05010400014923F04CB800BF63
:103FA800E6E503002DE9F04F0E46002189B00446EE
:103FB80017460D4603AA304601F10108FFF7AEFD8A
:103FC800B0B995B127B13A460821204622F031FE12
:103FD8001E4FDFF87C90DFF87CA0002103AA304652
:103FE80001F10108FFF79AFD60B909B0BDE8F08F4B
:103FF800006810B1FCF7E8F880B2854238BF054682
:104008004146D7E703688BB11A787AB1D0F804B083
:104018004A46CDE9005308213B46204622F009FED6
:10402800BBF1000F04D16069FFF7B6FF4146D5E741
:10403800524620463B46082122F0FBFDAA1D92B2BB
:104048005946204623F004F8F0E700BF49EE030084
:1040580034EE030001E20300F7B50F6805460E468B
:10406800A7B13846FCF7B0F884B2094B009328464C
:10407800084A3B46082122F0DCFDE21C716892B236
:10408800284603B0BDE8F04022F0E2BF3C46ECE72A
:1040980045EE03003BEC030010B507490446FCF766
:1040A80081F838B105492046FCF77CF8B0FA80F071
:1040B800400910BD0120FCE73BEE03003EEE030083
:1040C80010B58368D3F874329B06044603D50649B5
:1040D800406923F034F8A36850225A87A36818224D
:1040E8001A87002010BD00BFF6C3030008B5836916
:1040F80002491A6822F07BF9002008BD4CEE030043
:104108002DE9F3410D490E4C0E4EDFF83C80054673
:1041180022F06DF90022B44202F1010703D3002016
:1041280002B0BDE8F081636A0093A36892B2414689
:10413800284622F05CF930343A46ECE75CEE03009E
:104148004CC203007CC2030074EE030008B50249A8
:1041580022F077F9002008BDE7E5030073B50E4E9D
:1041680004460025A268E0680DF1060302F5AB726B
:10417800012123F094F8BDF80600A36840B12A464F
:1041880003F5AB733146204622F031F90135E9E7F2
:1041980083F8560102B070BD85EE030010B50446E1
:1041A80022F093F903490246204622F020F9002024
:1041B80010BD00BF96E90300022907B50BD153686B
:1041C800009312680B4B0C4922F02DF96FF0150083
:1041D80003B05DF804FB8368084AD3F874320849D1
:1041E80013F0020F074B18BF1A4622F000F90020FF
:1041F800EEE700BF93EE0300A8EE03008FEE030086
:10420800B1EE03001F08040010B58368D3F87432B8
:104218009A06044603D50749406922F090FFA3682F
:10422800D3F874329B0603D50349606922F087FFEF
:10423800002010BDFDC3030002C40300F0B501292E
:1042480085B004460AD05368009312685D4B5E49F6
:1042580022F0E9F86FF0150005B0F0BD8368D3F8D7
:104268007432990603D55949406922F068FF6FF006
:10427800F9012046FFF7C6FCFA212046FFF7D8FCD3
:10428800A06800254FF48072294600F5AB708DF8C0
:104298000B5037F065FE4E49606922F050FF6069A7
:1042A80022F021F94FF47A766068036801221F69C9
:1042B8000DF10B0103ABB847039BEBB9013E4FF47B
:1042C8007A70B6B20BF030FA002EEDD1A368D3F8AD
:1042D80074329B0603D53F49606922F030FFA3681A
:1042E8003D4950225A87A368182220461A8722F08F
:1042F8008CF86FF00700AFE79DF80B20A3681B2A26
:1043080053D093F856111B29CED1522A4DD15A19A0
:10431800002382F85631A66896F857215B2A2BD1DC
:1043280006F25710022510F8011F2A463B2905F10D
:104338000105ADB223D1FF2AC8D002F5AB7216FA37
:1043480082F1002211F8010F18BB86F85601FA2AEB
:10435800A16828BFFA224A87FA2BA26828BFFA2345
:104368001387A368D3F874329A0603D5194960698C
:1043780022F0E5FE00206FE786F85631A6E703EB4A
:104388008303303901EB4301B5F5807F8BB2CAD185
:104398009CE7013502EB8202ADB2303800EB4200F7
:1043A800B5F5807F82B2CDD190E72B440135ADB20F
:1043B800092D83F856217FF677AFA368002283F88A
:1043C800562183E793EE0300A8EE030008C4030018
:1043D800FCEE03000CC40300C2EE03002DE9F04F0D
:1043E800074689B01546894621B1104623F00CF8D6
:1043F80000285BD1032455E05C463CE029460AF5D9
:10440800AB7037F018FD0646002854D0FBF7DCFEE9
:1044180082B2601C01323146304437F087FD2246B3
:104428005946304637F074FD4FF020033355BAF83B
:10443800543001331C44AAF8544008F10108002400
:1044480001994B1C03AA48460193FFF767FB0646F0
:10445800E8B131680022284623F095F90028EFD109
:10446800D6F800B0D7F808A0BBF1000FC4D0584662
:10447800FBF7AAFE84B2BAF854302344FF2BBDDD03
:104488000E4A2B460321384622F0D3FB0124B8F10B
:10449800000F07D0B8682A4600F1540100F5AB7048
:1044A80022F051F9204609B0BDE8F08F4FF000081E
:1044B80041460224C5E70224E9E700BFB9F3030037
:1044C80038B50C46154622F0E4FF034B43F830504C
:1044D80003EBC0035C6038BDA00D00202DE9F84354
:1044E800054600AF0C46002948D0DFF8B890D9F847
:1044F80000305A0742D06E468AB0D1E90001A3685D
:104508006A46DFF8A4C04FF00508C2E905C0C2E951
:10451800071342F8108F00234FF421514846FDF746
:1045280047FAD9F800305B07B54627D08AB0D4E9F6
:10453800030163696A46DFF874C0C2E90713C2E978
:1045480005C042F8108F002348464FF42151FDF76B
:104558002FFAD9F800305807B5460FD0E369012182
:10456800134A484621F005FCD9F80030590705D010
:10457800A369104A0121484621F0FBFB012D0AD10D
:10458800EFF3058307480268520704D00A4A103B34
:10459800294621F0EEFB214628460BF001F9BD46DD
:1045A800BDE8F883540F002011F4030040F4030021
:1045B8006FF403007EF40300ACF4030030BFFFF790
:1045C800FDBF00BF2DE9F0410B4EDFF8308006EB50
:1045D8000807CC1B054632460949204637F098FCA7
:1045E800A01942460021083C37F0BAFCC5F8A8409B
:1045F80007F10800BDE8F081000000000800000095
:10460800D4C30300054B9A699B689A421FBF044AAA
:10461800536843F080535360704700BF38BE002092
:1046280000ED00E0F8B5374C23685B0706460D46F9
:1046380003D03549204622F038FF344B9B6ADF040B
:1046480051D52368580703D031492E4822F02DFF51
:1046580017202E4B9B6A190507D523685A0703D0E4
:104668002C49284822F021FF1820284FBB6A9B05B7
:1046780019D52368580703D02749224822F015FF87
:10468800BB6BBA6A11040DD52268520704D0234ABD
:104698001C48012121F06DFB26B11C4A936A23F4C2
:1046A800004393621920194B9B6A5B0507D5236861
:1046B8005F0703D01A49134822F0F7FE1A20134B5C
:1046C8009A6AD60511D52368590703D015490D48AC
:1046D80022F0EBFE1B200D4A936A43F47F4393625A
:1046E80000232B70F8BD1620B3E79B6A9A04F2D515
:1046F80023685B0703D00C49024822F0D6FE1C2031
:10470800E9E700BF540F0020BFF4030000ED00E00C
:10471800D5F40300E6F40300F9F4030012F50300EE
:1047280027F5030042F503005AF5030010B52D4C98
:1047380023685A0703D02C49204622F0B6FE2B4B9B
:104748009B6A9B014BD52368580703D02849254805
:1047580022F0ABFE1E20254B9B6AD90107D52368A2
:104768005A0703D023491F4822F09FFE1F201F4BE2
:104778009B6A1B0307D52368580703D01E491948AD
:1047880022F093FE2120194B9B6A590307D5236811
:104798005A0703D01949134822F087FE2220134BE9
:1047A8009B6A9B0307D52368590703D014490D4812
:1047B80022F07BFE23200D4B9B6ADA0307D5236882
:1047C8005B0703D00F49074822F06FFE2420074AF1
:1047D800936A6FEA03436FEA1343936210BD1D2087
:1047E800B9E700BF540F002089F5030000ED00E091
:1047F800A1F50300B4F50300CEF50300ECF50300C2
:1048080011F603002BF603002DE9F047454D2B6800
:10481800894659078046174603D04349284622F05F
:1048280044FE424B9B6ADA0639D52B685B0703D0F6
:104838003F493C4822F039FE11243C4B9B6A1E0735
:1048480007D52B68580703D03A49364822F02DFE81
:104858001224DFF8D8A0DAF82830990721D52B6878
:104868005A0703D034492F4822F01FFEDAF8346083
:10487800DAF828301B0651D52B685C0705D02F4A7B
:1048880028483346012121F074FAB9F1000F04D009
:10489800264A936A23F080039362132403E01024CA
:1048A800CBE76FF01506214B9B6AD80707D52B6815
:1048B800590703D022491B4822F0F7FD14241B4B4B
:1048C8009B6A9A0607D52B685B0703D01D491548D4
:1048D80022F0EBFD1524154B9A6AD50602D49A6A84
:1048E80090070AD55B68190507D54146304600F0A0
:1048F8003DFA10B180F3098802240C4B9A6A92069B
:1049080042BF5A6A22F400525A629A6A42F0FF027F
:104918009A6200233B702046BDE8F0876FF01506C9
:10492800BBE700BF540F002056F6030000ED00E07F
:104938006CF60300E6F403009FF60300B7F60300E5
:10494800CDF603005AF503002DE9F041744B8AB007
:10495800D3F8048000AF0446C8F30806002585F3A1
:104968001188BFF36F8F02F07F43B3F17F4F0AD1F5
:1049780002F00C03082B15D16A480368590702D0C6
:10498800694922F092FD00252C460023FB71F31E95
:10499800092B00F29F80DFE803F00A91948D9D9D1A
:1049A8009D9D9D9712074CBF0C460125EDE75D4E76
:1049B80033685B0703D05D49304622F076FD00235B
:1049C800FB71574BDA6A900708D53368590703D04B
:1049D8005749544822F069FD00233CE0DA6A002A6E
:1049E80004DA33685A07F7D05249F2E7DB6A5B000A
:1049F800F2D53368580703D04F494A4822F055FD8D
:104A0800474BA1695A6942F480725A61BFF34F8FCC
:104A1800BFF36F8F5A6931F8021C22F480725A6111
:104A2800BFF34F8FBFF36F8F4DF60272914208D0DC
:104A38009A6AD2B28AB3FA1D01212046FFF7E4FE32
:104A48003AE03368590705D023683C4A35480121C4
:104A580021F08FF92368FA79DAB907F1080604F129
:104A6800200C20686168324603C208346445164643
:104A7800F7D17A6A002D4DD0C2F3080121B96FEA47
:104A880052226FEA42227A6207F108011846FFF7BC
:104A980025FD2837BD46BDE8F0819A6A12F47F4F9C
:104AA80004D0F91D0120FFF7BDFD05E09B6AB3F5B1
:104AB800803F91D3FFF73AFE0346CCE7FA1D002169
:104AC800BBE7F91D0020EEE7164803685A0783D0B4
:104AD8001B497FE7134803685B073FF47DAF194A1A
:104AE800194B18F4F87FE8468AB018BF13466A468F
:104AF8001649C2E905134FF400731384103E144B92
:104B0800D66142F8103F00234FF41151FCF750FFD3
:104B1800C54661E722F4FF7222F00102B3E700BF45
:104B280000ED00E0540F00201AF7030045F70300DA
:104B38005CF703007DF703008BF70300AAF7030077
:104B4800C6F7030001F70300ECF60300EAF70300D9
:104B580004000001044B5A6942F010025A615A6974
:104B680022F008025A61704700ED00E0EFF3088078
:104B7800EFF3098101B57246FFF7E6FE01BD00BFFC
:104B88000E4880F30888202080F311880C484FF0E5
:104B9800AA014FF4046228F088F809484FF4046128
:104BA800401880F30988EFF314800221084380F34A
:104BB8001488BFF36F8F00F0A1F80000401D01209A
:104BC80080090120BFF34F8F0549064BCA6802F4DC
:104BD800E0621343CB60BFF34F8F00BFFDE700BF18
:104BE80000ED00E00400FA05084B9B6883420BD1F6
:104BF800EFF3058343B1064B5A6842F080525A607E
:104C08005A6A22F400425A620BF042BF38BE0020B2
:104C180000ED00E015498A684FF030001044EFF3CA
:104C2800098C80E8F01F202080F31288BFF36F8F73
:104C38000F4F4FF000668A698A603E60D2F8A8007C
:104C48000C4C2060D2F8AC000023C2F8AC3080F3E2
:104C5800118804B5104600F0FBF8BDE8044002F1E5
:104C6800300090E8F01F8CF30988704738BE0020A8
:104C780004ED00E0F89500201EF0040F0CBFEFF3E0
:104C88000880EFF30980816911F8021C0229FFD01E
:104C980001B5724622F0FEFB01BD00BF0028ACBF83
:104CA80000F16040064B4FEA4111ACBF00F561408E
:104CB80000F00F00C9B2B4BF195480F80013704750
:104CC80014ED00E040B2002807DB044A4109012343
:104CD80000F01F00834042F82130704700E100E0F7
:104CE800044B054A23F07F039360BFF34F8FBFF354
:104CF8006F8F70470000000000ED00E008B5FFF777
:104D0800EFFF0B4AD2F8883023F47003C2F88830DA
:104D1800EFF3148323F0040383F31488BFF36F8F36
:104D28000AF04CFE0CF048F800F05EF80AF09CFE21
:104D380000ED00E042F8203C009B42F81C3C0A4988
:104D4800019B42F8183C029B42F8143C21F00101F7
:104D58004FF0807342F8043C42F8081C0023203AC4
:104D68000265C0F8AC307047F10C00000A4A0346EF
:104D7800906878B113F1160FD0F8980005D0A0F11B
:104D880040029A4205D8834203D2814228BF0020BC
:104D980070470020704700BF38BE002008B5154690
:104DA8000A4A0B4B9060D0F8A8201A600E4600F013
:104DB8004FF82C4686F309880020064B9847204672
:104DC800002100220023044C204700BF38BE0020E9
:104DD800F8950020E5740200F10C0000014B102248
:104DE8001A61704700ED00E0044800232021C21832
:104DF8000133262B82F80013F9D1704700E100E057
:104E080008B572B60A4B5A691AB100225A61FDF701
:104E18003FF862B6EFF30583064A103B02EBC30185
:104E280052F8330049688847BDE80840FFF7EABBF5
:104E380038BE0020A00D0020024B034A0348012180
:104E480000F092B8004002200000002048C903008A
:104E5800D0F89820054B403A1A60054A4021C3E92A
:104E680001121846012100F089B800BFFC95002006
:104E780000000B1508B503461148D0F89020C2F37E
:104E88000722013A93420AD90E480268520703D012
:104E98000D4A012120F06DFF6FF0150008BDC0F824
:104EA80098300A6822F01F021A4342F01002C0F834
:104EB8009C208A6842F00102C0F8A0201846EDE75D
:104EC80000ED00E0400F002001F80300F0B50E46A9
:104ED80085B01F4604460025B54210DA606828B33D
:104EE800AFB1431E18420DD0124803685B0704D0C7
:104EF800114A2B46012120F03CFF6FF015021046A5
:104F080005B0F0BD1F28EFD921680B42ECD123680A
:104F1800019322F0F7FAA36801A90343D0B20393DF
:104F2800FFF7A8FF10F1160FE7D0421C01350C342B
:104F3800D2E700BF400F002027F80300044B0522EA
:104F4800C3F89420BFF34F8FBFF36F8F704700BF34
:104F580000ED00E0BFF35F8F024B0022C3F89420FE
:104F6800704700BF00ED00E010B5034C0123227824
:104F7800FFF7ACFF207010BD13C0002008B50B4A26
:104F880000231278FFF7A2FF10F1160F07D0084A86
:104F98000021D2F89030C3F30723984200DB08BD04
:104FA800C2F89800C2F8A0100130F2E713C0002040
:104FB80000ED00E02DE9F04357485849D0F890300B
:104FC8000D68C3F307239D4285B000F2A180FFF767
:104FD800C1FF49680022954201F10C011AD1504CD9
:104FE800504F25706846FCF72BFFDFF83C81DFF84F
:104FF8003C9106460025AE421FD123784649002041
:10500800D1F89020C2F3072293427BDBFFF796FF8B
:1050180000204CE0C0F8982051F80C3C23F01F0306
:10502800134343F01003C0F89C3051F8043C43F09C
:105038000103C0F8A0300132CDE7009800EB05115C
:105048004FEA051CCB683B40B3F5000F44D00AD8A3
:10505800B3F5001F2ED0B3F5800F34D0B3F5801F01
:1050680010D00135C7E7B3F1807F3ED0B3F1007FA0
:10507800F7D150F80C3088684A6822F043FA40F4B7
:10508800802009E050F80C3088684A6822F03AFA23
:1050980040F0885040F43020039001A92078CDE9F1
:1050A8000123FFF7E7FE002828DA6FF0150005B0A6
:1050B800BDE8F08350F80C3088684A6822F022FA7C
:1050C80040EA0800E8E750F80C3088684A6822F09F
:1050D80019FA40EA0900DFE750F80C3088684A6896
:1050E80022F010FA40F08270D6E750F80C30886849
:1050F8004A6822F007FA40F08870CDE72378013338
:105108002370AEE7C1F89830C1F8A000013377E703
:105118004FF0FF30CBE700BF00ED00E054C90300BB
:1051280013C000200000F0FF000008110000020278
:10513800F0B587B007460E4614460021102268468F
:105148001D4636F00DFF02238DF802302A46054B26
:10515800019321466846CDE904761FF0A3FC07B009
:10516800F0BD00BF2D75020008B502481FF072FBA4
:10517800FEE700BF59F8030008B5024B1B689847C3
:10518800002008BD08960020034B044A1860937855
:1051980043F0020393707047089600205C030020D8
:1051A80008B50649064821F00701C1F1005202F589
:1051B800103220F0C6F8002008BD00BFC739012012
:1051C8000C96002003484FF0FF324FF0FF330AF0EF
:1051D80025BD00BF6C03002001480AF097BD00BF41
:1051E8006C03002038B50546FFF7ECFF08482A464F
:1051F800082120F03EF8044628B925B136F0C0FE53
:10520800044B0C221A50FFF7E7FF204638BD00BFB9
:105218000C9600200C00000010B50446FFF7D2FFE2
:10522800214603481FF0EAFFBDE81040FFF7D4BF4E
:105238000C96002070B5A0FB01543CB92846FFF736
:10524800D1FF064640B90026304670BD36F098FEBC
:10525800044B0C221A50F6E72A46214636F080FE07
:10526800F2E700BF0C00000008B500F0B7F80A49E3
:1052780041610A490122C0E900220A6008490A601E
:10528800084A00231360084A03611360C0E9023327
:10529800064A136008BD00BFE7E503009C03002031
:1052A80098030020209600201C96002018960020C5
:1052B8002DE9F04107460E46154600F08FF8C36801
:1052C80004461BB943691A78002A41D10023E360D8
:1052D8006368BB4256F8232008DB324B63612046E3
:1052E80000F062F84FF0FF30BDE8F081511C6161B9
:1052F80092F80080B8F12D0FEFD1911C61615178BF
:10530800A1602D2904D192786AB901336360E4E77A
:1053180049B9244B63614146284636F051FD0028BF
:10532800DDD0C4F80880D4F808802846414636F015
:1053380047FDB8F13A0F636900D070B91B7813B90B
:10534800636801336360204600F02EF83F20CBE706
:105358005A1C42611B788360E5E742783A2A0BD0F1
:10536800002222611B7813B9636801336360204609
:1053780000F01AF8A068B7E718786268094928B9F0
:1053880001329742626004DD56F82230C4E90431E4
:10539800EAE761612D783A2D2046D5D100F004F86E
:1053A8002846A1E7E7E50300074B02681A60074BA8
:1053B80042681A60064B82681A60064BC2681A6017
:1053C800054B02691A6070479C030020980300206F
:1053D800209600201C960020189600200048704750
:1053E8008003002070B54169857A0C4E044659B196
:1053F800437ADB0706D4302303FB05639B6A1B68EB
:105408009B6898470023636105EB4505214606EB39
:105418000510BDE8704027F073BD00BFC81000201C
:10542800827A074B302101FB0233DA6A93F8223083
:105438001B33801A23F00303B0FBF3F0704700BF5F
:10544800C810002038B5074B827A302404FB023399
:105458009B6AD3E901240C601568FFF7E1FF04FBA0
:10546800005038BDC81000202DE9F04385B005462E
:105478006846039190461C4627F0A1FFDDE90067C6
:10548800EFF31189202383F31288BFF36F8F2B8CDE
:10549800002B43D0EA8B9A4225D9002200232846C4
:1054A8000AF084FC0446F0B189F31188BFF36F8FCA
:1054B800039B002B43D032463B46684627F0A3FFA8
:1054C800A27A274B302101FB023320469B6A1B68D6
:1054D80003A91D68DDE90023A847606180BB204659
:1054E800FFF780FF26E0298C4B1E2B8489F3118857
:1054F800BFF36F8F95F82230EA8BEC6A1B3323F0E9
:105508000303521A02FB0344154B164AEB1A1B11EC
:105518005343A37295F82230E372C9E789F31188DF
:10552800BFF36F8F2346424628460AF03FFC0446E5
:105538000028BDD10024204605B0BDE8F083636192
:10554800012300252381039B6382E27A6560294653
:1055580004F1180036F004FD63692582E360EAE788
:10556800C8100020ABAAAAAA70B50C4C302500B907
:1055780070BD037A4668013BDBB20372002BF7D19A
:10558800C3604360837A05FB03435B6A13B19847A2
:105598003046ECE7FFF726FFFAE700BFC810002007
:1055A80010B50A4C0A48002122F027F920460021AC
:1055B80022F032F904F10800002122F02DF904F15B
:1055C8001000002122F028F9002010BD84C9030032
:1055D800A8C9030070B50C460646002120481546A8
:1055E80022F01AF91F48002122F016F900211E485E
:1055F80022F012F914F0010116D0304607F0BCF978
:105608002B88B3F5C15F4FEAD07007D043F6070285
:1056180093420ED040F60202934217D1EB7B03F07F
:105628007F039BB140B10421BDE870400F4822F0D0
:10563800E4B895F82430F2E70C48032122F0DDF8AD
:1056480009480121BDE8704022F0E6B808B10221FE
:10565800EAE70648012122F0D0F801480121F1E7E4
:1056680084C903008CC9030094C90300A8C90300B6
:10567800F7B506460D460D4883688AB21B68314661
:105688009847002810DA00240CE02F1B042F28BFAD
:10569800042726F079F83A46019001A9301936F026
:1056A80037FC3C44A542F0D803B0F0BD58C0030015
:1056B80010B503460548826814688AB21946A0479F
:1056C8000028B4BF6FF00400002010BD58C00300CC
:1056D800034B084619684A78023136F019BC00BFF6
:1056E8003096002070B50B21044622F06FF90C218A
:1056F800204622F06BF9134B134AC4B9C3E90024BE
:1057080025462346114A136009F09CF80646C0B99D
:1057180020466C6023F052FC0D48294609F054F9E4
:10572800C5E94E660748BDE8704009F06FB82568BE
:1057380005B1AD68C3E900252368002BE2D010331A
:10574800E0E770BD249600204F78020030960020D4
:1057580031790200F8B5064609F02CF828F04CFD1E
:105768001E4F044604B9F8BD94F91230002B33DB00
:10577800A368B3F17F4F04D1E36823F07F43BB42B2
:105788002AD0627C012A21D8002301227068214690
:1057980023F084F90546F8B109F00CF828F05BFF0E
:1057A80008220146204636F0FBFA95F83D30B0FA5B
:1057B80080F0400960F3820385F83D30A37C03F054
:1057C8000103C3F1020385F8293005E0022A01D15B
:1057D8000023DBE7032AFBD06469C3E7FE00FC0073
:1057E80038B54FF0FF324FF0FF3305461D4822F021
:1057F80069FC1D4B1B687BB11A684FF0FF344FF4EE
:105808007A705BB9631C1BD1184827F043FCBDE8CC
:105818003840144822F05FBC1A46EEE7D9691B8C61
:10582800491B00FB0313002B09DD9C4228BF1C46C3
:105838001AB1116813460A46E3E71146FAE700244D
:105848004FF4004540F2E73000214FF47A7200230C
:10585800E4FB0501FAF78CFC02460B4603480AF004
:10586800E3FCD4E7FC0F002038990020D01A002070
:10587800F8B522F0BDFB4FF0FF3306464FF0FF327C
:105888001C4822F01FFC1C490B682BB100221C6825
:105898004FF47A7E17463BB93046FFF7A1FFBDE8C3
:1058A800F840144822F017BCDD69188CAD1B0EFBBC
:1058B8000055002D9C460EDC186892B94D680860AA
:1058C800AB4200D1486093F822001F6067F30000E4
:1058D80083F82200944654B1206823466246044661
:1058E800D9E710604868834208BF4A60EBE7204662
:1058F800F3E700BFFC0F002038990020002808DDDE
:10590800431E054800EB8310044B984228BF002033
:1059180070470020704700BF281100206811002040
:1059280073B522F065FB294E0023CDE90033044608
:105938004FF0FF3326484FF0FF3222F0C3FB3368A5
:1059480073B353F82C2902B12C3AC4F1640401E072
:1059580013460A465D6B2544002D10DC706803F180
:105968002C018142DB6A08BF73606846336022F00D
:10597800A1FAAAB1D16A0029EAD02C39E8E74FF494
:10598800004440F2E73000214FF47A720023C5FB4F
:105998000401FAF7EDFB02460B460E480AF044FCF8
:1059A8000B4822F098FB009C74B12C3C012594F81C
:1059B8003C0084F82950FFF7A1FF211D24F03FFD8A
:1059C800E46A0CB12C3CF2E702B070BD20990020CB
:1059D800FC0F0020401A0020054B064A934205D0D0
:1059E800054A1068002808BF18467047002070470D
:1059F800281100206811002064990020F8B54FF0A4
:105A0800FF330546174610484FF0FF320E4622F086
:105A180059FB0E4B1B680BB11C6823B9BDE8F84055
:105A2800094822F058BB5A68AA4200D022B99B689C
:105A38003A463146284698471CB122682346144600
:105A4800EBE72246FAE700BFFC0F00203C96002057
:105A580038B504460D4622F037FB0721204622F0D0
:105A680091FA20B3636843B105B12B60002504F1B6
:105A7800140022F030FB284638BD4FF0FF324FF0BB
:105A8800FF330C4822F01EFB0B4BD3F8C82242B957
:105A98006360C3F8C84205B12B60064822F01BFBBF
:105AA800E4E7044822F017FB6FF00205DFE76FF028
:105AB8008505DCE7FC0F00204C96002070B50446F5
:105AC80022F002FB0B21204622F05CFA034604F187
