:10000000C01D0120755500009B8402006155000051
:1000100061550000615500006155000000000000BE
:100020000000000000000000000000006D5600000D
:1000300061550000000000000956000061550000F5
:10004000F5570000F5570000F5570000F557000080
:10005000F5570000F5570000F5570000F557000070
:10006000F5570000F5570000F5570000F557000060
:10007000F5570000F5570000F5570000F557000050
:10008000F5570000F5570000F5570000F557000040
:10009000F5570000F5570000F5570000F557000030
:1000A000F5570000F5570000F5570000F557000020
:1000B000F5570000F5570000F5570000F557000010
:1000C000F5570000F5570000F5570000F557000000
:0800D000F5570000F557000090
:1000D8007BB972B90029BEBF00204FF0004106E08D
:1000E80008BF00281CBF6FF000414FF0FF3000F040
:1000F80057B8ADF1080C6DE904CE002909DB002BD7
:100108001ADB00F069F8DDF804E0DDE9022304B049
:100118007047404261EB4101002B1BDB00F05CF8AB
:10012800DDF804E0DDE9022304B0404261EB41015F
:10013800524263EB43037047524263EB430300F0C0
:100148004BF8DDF804E0DDE9022304B0404261EB3E
:1001580041017047524263EB430300F03DF8DDF87C
:1001680004E0DDE9022304B0524263EB4303704725
:1001780053B94AB9002908BF00281CBF4FF0FF3106
:100188004FF0FF3000F00CB8ADF1080C6DE904CE6B
:1001980000F022F8DDF804E0DDE9022304B070473E
:1001A800704700BF10F8012B11F8013B012A28BF46
:1001B8009A42F7D0D01A7047034611F8012B03F87A
:1001C800012B002AF9D17047034613F8012B002AA6
:1001D800FBD1181A013870472DE9F04786468C463E
:1001E8000846089E154674461946002B40F0C28002
:1001F8008542B2FA82F245D94AB1C2F1200300FA27
:1002080002FC2EFA03F3954043EA0C0C94404FEAA3
:10021800154EA8B2BCFBFEF8230C0EFB18CC08FB4D
:1002280000F943EA0C43994528D9EB1808F1FF3740
:1002380004D2994502D9A8F102072B44A3EB09037C
:10024800A4B2B3FBFEFC0EFB1C330CFB00F044EA2B
:100258000344A04214D92C190CF1FF3304D2A04254
:1002680002D9ACF102032C44241A43EA07401EB118
:10027800D440002334607360BDE8F0874746DDE76B
:100288006346F1E792BB431B01214FEA154EAFB21B
:10029800B3FBFEFC200C0EFB1C330CFB07F840EAFA
:1002A8000343984562D9EB180CF1FF3004D2984506
:1002B80002D9ACF102002B44A3EB0803A4B2B3FBB0
:1002C800FEFC0EFB1C330CFB07F744EA0344A74271
:1002D8004ED92C190CF1FF3304D2A74202D9ACF144
:1002E80002032C44E41B43EA0040C0E7C2F12003A8
:1002F80020FA03F1954090402EFA03F303434FEAA6
:10030800154EAFB2B1FBFEFC0EFB1C10190C0CFB1A
:1003180007F841EA0041884504FA02F422D969182D
:100328000CF1FF3004D2884502D9ACF1020029440F
:10033800A1EB08019BB2B1FBFEFC0EFB1C110CFBF0
:1003480007F743EA01439F420ED9EB180CF1FF313E
:1003580004D29F4202D9ACF102012B44DB1B41EAD3
:10036800004192E76046E3E76146F7E76046A3E7A6
:100378006346B7E7834206D916B9002108467BE7EA
:10038800C6E900E0F9E7B3FA83F78FB9834201D3EE
:10039800724508D8BEEB020460EB030301209C46BB
:1003A8001EB9002168E73846FAE7C6E9004CF8E7C5
:1003B800C7F1200CBB4022FA0CF41C432EFA0CF1B6
:1003C80020FA0CF3B84001434FEA14490EFA07F536
:1003D800B3FBF9F81FFA84FE09FB18300B0C08FB75
:1003E8000EFA43EA00439A4502FA07F240D9E318A5
:1003F80008F1FF3004D29A4502D9A8F1020023443B
:10040800A3EB0A0389B2B3FBF9F809FB183308FB1D
:100418000EFE41EA03418E452CD9611808F1FF33DD
:1004280004D28E4502D9A8F10203214443EA0040D0
:10043800A0FB0298A1EB0E014145CE46434602D3EC
:1004480006D14D4504D2B9EB020E68EB040301381E
:10045800002EA6D0B5EB0E0261EB030101FA0CFCED
:1004680022FA07F34CEA0303F940C6E9003198E79A
:100478004046C5E74346D9E72DE9F047064688B028
:100488000F4690462DF0AAFF4FF47A73A0FB034560
:1004980003FB0155E40B012F44EA45444FEAD535E7
:1004A80007D1294922462B46304626F09BFF0020DB
:1004B80012E0D8F8047025483946FFF773FE70B18A
:1004C80023483946FFF76EFE48B1304621493A467F
:1004D80026F0A4FF6FF0040008B0BDE8F0872046BE
:1004E800294617A3D3E90023FFF7F2FD05460C467A
:1004F80010461946184A0023FFF7EAFD80460F46C2
:10050800104619464EF660220023FFF7E1FD8246A9
:100518008946104619464FF47A720023FFF7D8FD32
:10052800CDE902A9CDE90623CDE90401CDE900878B
:100538000A492A462346304626F054FFB7E700BF4B
:10054800005C26050000000027F4030038F40300CF
:100558003BF4030044F4030080EE36005CF403002F
:100568002DE9F3411E461C4B83424FF000038B419B
:10057800044615460AD216A3D3E90023FFF7F8FD6F
:10058800164914460246284631F004F9144BB4FBC8
:10059800F3F24EF6602103FB12444FF47A78B4FB71
:1005A800F1F3284601FB13440E49B4FBF8F7009712
:1005B80031F0F0F846B10C4908FB1742284602B062
:1005C800BDE8F04131F0E6B802B0BDE8F08100BF07
:1005D800005C260500000000FF5B26051D240400C2
:1005E80080EE360023240400322404002DE9F04F65
:1005F80091B08407009302F004030293C2F3C2038C
:1006080003F10103DDF86880039205460E46059361
:1006180040F0BA81041D30B1072909D86FF01B00DA
:1006280011B0BDE8F08F01F007063444C6F10806A2
:10063800009B4FF00009591E4FF0040A4FF0FF339A
:100648000193CDF810904F46CB4653460DB1009A12
:1006580022600598002800F3E8809848009A8242B2
:1006680003D397488242C0F0E080039AA4EB050EBA
:1006780092074FEA9E0000F103810F2F00F2B1802C
:10068800002D00F0058107F140020DEB020C019AE4
:100698000CF8200C0CF8102C049801300490E7E0BA
:1006A8007A285DD84B280ED8472859D829282DD81C
:1006B800252852D054D820287AD02338D0F1000BDE
:1006C8004BEB000B74E04C382E2849D8DFE800F0DB
:1006D8007048484848484848484848484B48484867
:1006E800484848484859484B4B595959704B6D48E8
:1006F8007048184B184848827F4B48484B487F0041
:1007080000204FF0000B4FF0040A38E02A38C0B23E
:10071800012202FA00F010EA0E0F49D110F0625CD3
:100728002FD110EA020B43D06046013C5444B4FB7D
:10073800FAF40AFB04F4002D61D0A3EB050CA444E1
:10074800B4453FF66BAF002868D1042B47D158F861
:10075800043B2360043404232AE0019A013A0192FD
:100768004FF0000B24E011F8010C6C2834D111F87B
:10077800023C00206C2B8346C5D14FF0080A534633
:10078800D3E708F1070828F007080734F8E802ABB0
:1007980024F0070435B106982044B0423FF63EAF36
:1007A800C4E900AB08344FF0000B4FF0080A534679
:1007B80011F8010F002878D0BBF1000F7FF470AF5B
:1007C8002528F5D1019B013301934FF0010B4FF020
:1007D800040AECE7584694E700208346A5E7082B6F
:1007E80002D06FF015001BE708F1070828F007088A
:1007F800F8E80223C4E9002308340823D8E768B9D5
:10080800042B02D108F10408A4E7082BE9D108F168
:10081800070828F0070808F10808EDE7059A013AE3
:10082800059258F8042B009210E7039A900720D5F8
:10083800A4EB050E4FEA9E004FF0010CBEF5007FB9
:10084800CFD20F2FCDD8F5B107F140020DEB020E34
:10085800C0B2019A0EF8200C0EF8102CBCF1000F53
:100868003FF41AAF60F07F000EF8200C09F101097F
:100878000137C5F10802043406924FF6DA7E97E78D
:100888004FF0000CDAE7BCF1000F01D00136EFE7BA
:10089800029802360028EBD10098CDE90631FFF71F
:1008A80093FCDDE906310644E2E7631BB3F5806F8C
:1008B80097D23DB9A6F10804E018B1E6C0CF03000D
:1008C800B0250400029A28609B082B709DF8103010
:1008D800C2B1EB7085F80290B9F1000F05D008A8F5
:1008E8000022C5F1010C97420ED1C5F101030DF1AB
:1008F80020084FF0000A01930DF1300B574512D133
:10090800601B8DE66B70E5E710F8013B190608D50A
:100918000CEB040EB64503F07F033FF67FAE04F8F8
:10092800013B0132DFE7B9F1000F03D098F900204D
:10093800002A17DB029BD3B11AF80B2004F8012B0D
:100948000022019B18191044B0423FF667AE98F890
:10095800000004F8010B0099039220463CF0E9FAE4
:10096800039A14440AF1010A08F10108C6E798F845
:10097800002055F822300093029B45F82230009859
:10098800FFF722FC421CDCE76FF00D0048E600BFD1
:100998002DE9F04F97B000AF90F802A0D7F880B0DB
:1009A8003B62CBF3C0030446FA62BB61894641B996
:1009B800457800780AEB800020444D4517D8A0EB15
:1009C8000409E378FB61BAF1000F02D01BF0010FB4
:1009D80016D1FB6953BBFB6A1BB13A6A49462046EC
:1009E80098474D4628465C37BD46BDE8F08F461C03
:1009F8003046FFF7E9FB0130304409F10109DCE733
:100A0800237862687A62FA6A9900796104EB830153
:100A1800002A40F004814D460E4601EB0A094FF0CA
:100A280000084E4550D101EB0A0610E01BF0020FFA
:100A3800D1D023789A007A6162687A62FA6A04EB04
:100A48008301002A7BD14D4601EB0A0690461BF034
:100A5800050F0CBF02230123FB62FB6906EB430A67
:100A68000BF00203BB625645BCD016F8021B16F801
:100A7800013C54F823909B4B994502D39A4B9945D6
:100A88003AD3BB69002B44D0786A25F03EFC002895
:100A98003FD09648036813F0060F13D0E9468AB092
:100AA8006A46934B53617B6AC2E906314FF400737F
:100AB8001384904B42F8103F00234FF4125101F079
:100AC8004FFBCD46023DCEE716F8013BF96254F8DC
:100AD8002300FFF779FBD7F88430F96A01304BB16E
:100AE800D7F8883098453EBFD7F8843023F81800E7
:100AF80008F10108054494E7BB6923B1786A25F039
:100B080004FC0028C5D11BF0010F05D1FB6AED1AC2
:100B1800A9E7BB6A002BA6D04846FFF755FBD7F8D4
:100B2800843053B1D7F8883098453FBFD7F8842030
:100B3800431C22F8183008F10108054493E7BAF17C
:100B4800000F72D01BF0040672D0D046002607F1C1
:100B5800480052463B61B9623CF0EBF9B96A3B691F
:100B680001EB0A02BA62FA69F9695200FA60BA6AD4
:100B780002EB41023A610BF00202BA603A69B96AC3
:100B88008A4257D162787A621BF0020F32440CBF56
:100B98004FEA580100211BF0010FD2B240F09F80AC
:100BA8001BF0040F14BF40460020BB616270A070A8
:100BB800E1703A6A7969FB6A20469847051EFFF694
:100BC80011AFBB6923707B6A6370FB69E3704146B0
:100BD8003A6AFB6A84F802A007F148009847B0F126
:100BE8000008C0F2BB807B693A6AA9EB0A01C91AFE
:100BF800FB68C91AD7E90A0398470028C0F2B080F1
:100C0800A84408EB00054FF0000B07F1380AB3457C
:100C180072D300213A6AFB6A08469847E2E65646CC
:100C28004FF0000807F1380093E75646D04697E79B
:100C3800B04695E7BA6A12F8021BBA6212F8015C6C
:100C4800284A54F82500904202D3274A90421ED3DE
:100C5800BA6932B1786A7B6025F057FB7B68002857
:100C68008CD1BA6802BB08F1280207F1300C08F1F0
:100C78000100944407F1580252FA80F008F1020882
:100C88000CF8101C5FFA88F800F8105C76E7BA696F
:100C98003AB1786A7B6025F038FB7B6800287FF4DE
:100CA8006DAF1BF0010F09D006F1280207F13000E3
:100CB800711C161806F8205CCEB25FE71BF0040F13
:100CC8003FF45CAF08F1280207F1300008F1010198
:100CD80002EB000808F8105C5FFA81F84EE7002084
:100CE80063E700BFC0CF0300B0250400480F002011
:100CF80078F10300040000011BF80A3087F8373048
:100D080054F82390D7F884302BB3D7F888309B4514
:100D180021D2D7F8843033F81B803A6AFB6A012164
:100D280007F13700984700281ADB0544B8F1000F8F
:100D380006D14846FFF748FA00F101081FFA88F87B
:100D48003A6AFB6A414648469847002808DB05444A
:100D58000BF1010B5BE74FF00008DEE7454641E683
:100D680005463FE6014B1860704700BF100300209E
:100D780080B505460E461746984610F001FD034615
:100D88003CF010F9DFF81890044649F80030424664
:100D980030463946A84754F8090004F01BFC00BF48
:100DA8000800000008B5EFF31183202383F31288AD
:100DB800BFF36F8F04F0FCFB024825F0CDFA27F053
:100DC8008FFBFCE72CF2030070B5364E8468446054
:100DD80001460125084625F036FD30B921230B745C
:100DE8008B684C618B614B6070BD5C284AD10846AA
:100DF80025F029FD752805DC5B280ADC2228E9D0C6
:100E08002F28E7D021230B748B684C618B6100205D
:100E1800E9E7A0F15C0305FA03F33342DAD1752858
:100E2800F0D1084625F00FFDA0F13003092B04D9B5
:100E380020F0200041380528E4D8084625F003FDB5
:100E4800A0F13003092B04D920F0200041380528EF
:100E5800D8D8084625F0F7FCA0F13003092B04D9AF
:100E680020F0200041380528CCD8084625F0EBFCB6
:100E7800A0F13003092BADD920F020004138052816
:100E8800A8D9BFE72228A5D18B680874013BC1E91E
:100E980005438B604B60084625F0D5FC8B680248FB
:100EA800A1E700BF410444010115000038B583687B
:100EB800013B8360044625F0C6FC662805460ED033
:100EC80074280ED10A49204625F0C9FC48B9636840
:100ED80063610848A3682574A361636038BD064947
:100EE800F1E721232374636863610020A368F3E7B3
:100EF80068F20300011500006DF2030008B5014611
:100F0800084625F0A0FCA0F13003092BF8D9A0F180
:100F18002D03012BF4D96528F2D02B28F0D08B684B
:100F2800044830220A744A68013BC1E905238B60F2
:100F38004B6008BD011500007B2805D8652806D838
:100F4800382813D821280DD86FF015007047663857
:100F5800094BC0B2C34013F0010F14BF00206FF05B
:100F6800150070472238054BC0B2F3E75B280CBF69
:100F780000206FF01500704709E0200001C07B00D9
:100F88002DE9F341044682680F4F92F800803CF047
:100F980009F8002313700E46C35105460A226068FB
:100FA80001A924F021FB3060A36883F80080E85988
:100FB80018B1404202B0BDE8F081A268019B9A4294
:100FC80018BF6FF01500F5E70C0000002DE9F3419C
:100FD800044682680F4F92F800803BF0E3FF00233D
:100FE80013700E46C35105460A22606801A924F011
:100FF80001FC3060A36883F80080E85918B14042CA
:1010080002B0BDE8F081A268019B9A4218BF6FF058
:101018001500F5E70C0000002DE9F341044682684D
:10102800104F92F800803BF0BDFF002313700E466E
:10103800C35105460A22606801A924F04BFBC6E9A2
:101048000001A36883F80080E85918B1404202B053
:10105800BDE8F081A268019B9A4218BF6FF01500A5
:10106800F5E700BF0C0000002DE9F3410446826853
:10107800104F92F800803BF095FF002313700E4646
:10108800C35105460A22606801A924F019FCC6E983
:101098000001A36883F80080E85918B1404202B003
:1010A800BDE8F081A268019B9A4218BF6FF0150055
:1010B800F5E700BF0C00000030B51546D0E9002365
:1010C80089B0CDE900230C46084A152102A824F06E
:1010D8005FFA002805DB142805DC01462A4602A829
:1010E800A04709B030BD6FF00B00FAE755F20300D6
:1010F80030B51546D0E9002389B0CDE900230C4668
:10110800084A152102A824F043FA002805DB142810
:1011180005DC01462A4602A8A04709B030BD6FF099
:101128000B00FAE75AF203000A4910B5044625F005
:1011380096FBD4E901230028B7BF21216E21217431
:101148006261A4BF21746261A3616360ACBF02489D
:10115800002010BD940A0400011500002DE9F34198
:101168000D460446012113481646A847002819DBF6
:101178005C27A04614F8010B38B90E483246012105
:101188002B4602B0BDE8F041184725F0E7FB60B1F7
:101198008DF805008DF804703246022101A8A84791
:1011A8000028E6D002B0BDE8F08132460121404671
:1011B800F5E700BF5FF2030030B585B003460C4683
:1011C80015460C21084A01A824F0E2F9002805DB9D
:1011D8000B2805DC01462A4601A8A04705B030BD0A
:1011E8006FF00B00FAE700BF2915040030B585B091
:1011F80003460C4615460C21084A01A824F0C8F9F4
:10120800002805DB0B2805DC01462A4601A8A04773
:1012180005B030BD6FF00B00FAE700BF761504008B
:101228007FB50E4605461046127808991C46737914
:10123800742A4FEA530301D0662A0AD1742B00F0AE
:10124800E180662B00F0DE806FF015004FF0FF3173
:10125800DFE0302A17D1312B00F02F8103F149024A
:1012680002F07F02012AEFD9692B00F08680752BE6
:1012780000F0F080352B00F01C81362B4DD1214633
:10128800FFF7F2FE47E0222A38D1322B00F0158111
:10129800732B00F01E81222BD6D1223B142BD3D8DE
:1012A80001A252F823F000BFCF1400005112000031
:1012B800511200005112000051120000511200009A
:1012C800511200005112000051120000511200008A
:1012D800511200005112000051120000511200007A
:1012E80055140000C3140000C3140000AB13000021
:1012F80051120000BB140000871200005B2A0ED1B7
:10130800332B4ED05B2B9FD10091D6E90212234696
:10131800284625F033FCC1177BE0302BBCE79A4206
:1013280092D1362A1CD8212A8ED9B6E7A2F17303A6
:10133800082B89D801A151F823F000BFDB14000065
:101348000D1400005D14000051120000511200003D
:1013580051120000511200005112000099130000B0
:101368007B2B3FF671AF722BE0D85B2BCCD05A2B7E
:101378007FF66AAF692B7FF467AFB368013B072B31
:1013880000F2B480DFE803F04754B262B2B2B2951B
:10139800D6E902122346284604B0BDE8704025F07D
:1013A8002ABB4368236000216160EE680122AB68B4
:1013B800B34202D16FF015021AE0187831B1B0F1DA
:1013C800220118BF01210133AB60F0E75D2811D17C
:1013D800013AF8D121685B1A01336360454B2B60F1
:1013E800AB68013BAB60AB6123686B615F232B7417
:1013F800104690E7222803D05B28E4D10132E2E7C7
:101408000121E0E7A2F174035A425A4122700020F8
:10141800014604B070BD03A9FFF7B2FD00287FF4B0
:101428007AAF039B03F18002FF2A5FD8237072E72B
:1014380003A9FFF7A5FD00287FF46DAF039B03F513
:101448000042B2F5803F51D2238064E72146FFF77E
:1014580097FD60E7B368013B072B47D801A252F814
:1014680023F000BF8D1400009F140000F514000045
:10147800B3140000F5140000F5140000F514000082
:101488008712000003A9FFF7A1FD00287FF443AFEE
:10149800039BFF2BC9E703A9FFF798FD00287FF4FA
:1014A8003AAF039BB3F5803FCDE72146FFF78EFDAA
:1014B80031E72146FFF7B0FD2DE7426822608368D7
:1014C8009B1A6360A3E7836800221A70436823604D
:1014D8009DE7D0E90115B3686D1AAB4206D92A46D3
:1014E80020463BF026FD0020605514E76FF01500FC
:1014F80011E700BF0115000010B50146084625F0A8
:10150800A2F94928044654D016DC222853D009DC15
:1015180058B3202803D0A4F10903042B08D88B68FA
:101528004B60EBE72D2830D03A2826D02C2824D041
:10153800303C092C32D915E06E283ED00ADC5D28F3
:101548001BD003DC4E2834D05B28F0E76628EFD1A7
:101558001B4819E07428FBD07328E9DD7B280CD0E0
:101568007D280AD021230B7400E008744B684B6176
:101578008B688B614B60002006E04B684B6111481B
:101588008B680C748B614B6010BD084625F05BF9C5
:101598008B683038013B09288B6001D80A48F3E78B
:1015A800084625F050F98B68492803F1FF338B6012
:1015B800BED10648E8E70648E6E70648E4E700BF84
:1015C800B50E000001150000050F00008768020035
:1015D800D10D00003111000030B51D468BB0104B05
:1015E8000590CDE90330084406905F23694603A8B7
:1015F80014468DF81C3025F0E7F928B96FF015006E
:101608004FF0FF310BB030BD9DF800307B2BF5D18A
:101618000E9B2A46214603A825F0EDF9F2E700BF04
:10162800011500002DE9F14F0A9E054688461D4820
:101638009146012132461C46984700282FDBDFF8E7
:1016480068A0DFF868B00027B845324606D11848C8
:101658000121234601B0BDE8F04F1847286821460C
:10166800FFF77CFD00281ADB324601215046A047CF
:10167800002814DB334622464946284600F01AF86B
:1016880000280CDB08F1FF339F4202D301371035E5
:10169800DAE7324601215846A0470028F6DA01B0B9
:1016A800BDE8F08F61F203008B24040063F20300AD
:1016B80065F20300F0B5C7880D46CE1941796D294A
:1016C800144687B01A464FEA51034DD8212B1BD830
:1016D8006FF0150059E0733B082BF9D801A151F8B8
:1016E80023F000BFBD170000971700003118000055
:1016F800D9160000D9160000D9160000D916000026
:10170800D9160000C3170000223B142BE0D801A112
:1017180051F823F0AF170000D9160000D9160000C1
:10172800D9160000D9160000D9160000D9160000F5
:10173800D9160000D9160000D9160000D9160000E5
:10174800D9160000D9160000D91600001918000093
:10175800A9180000AF180000D9160000D31800001F
:101768008D1800009B1800007B2BB1D8722BB2D8C3
:10177800662B0CD0692B28D05B2BA9D100928068EE
:1017880023462A46314600F0AFF807B0F0BDEB5DBE
:1017980033B152480421234607B0BDE8F04018474A
:1017A8004F480521F7E7E859214607B0BDE8F04062
:1017B800FFF7D4BC21463046F7E70092D0E9020192
:1017C80023463246FFF72EFFDFE78368013B072BEE
:1017D8003FF67EAF01A151F823F000BF05180000C5
:1017E80013180000D916000019180000D9160000B7
:1017F800D9160000D91600001F180000E857214626
:1018080007B0BDE8F040FFF7F1BCE85F2146F7E715
:10181800E8592146F4E7D6E90001CDE9040121465B
:1018280004A8FFF749FCB0E78368013B072B3FF6A4
:101838004FAF01A151F823F0611800006F180000A4
:10184800D916000075180000D9160000D916000036
:10185800D91600007B180000E85D214607B0BDE8F6
:10186800F040FFF7A9BCE85B2146F7E7E8592146B5
:10187800F4E7D6E90001CDE90401214604A8FFF701
:1018880037FC82E72146304607B0BDE8F040FFF755
:1018980013BC2146304607B0BDE8F040FFF728BC2E
:1018A8007168E85977E70F4803920121A04700289B
:1018B800FFF66BAF039A7168E859A0470028FFF656
:1018C80064AF039A0748012165E7ED59039228465A
:1018D800FEF77AFC039A014628465CE767F20300A4
:1018E8006CF203005FF203002DE9F14F0A9F1D46D9
:1018F800C388044652F803A01B480E463A46012105
:10190800A84700282CDB637903F0FE03B62B08BF39
:10191800A468204624F0BCFF4FF0000881460AF175
:10192800FF3BD04507D111483A4601212B4601B06B
:10193800BDE8F04F1847E1883B462A46711A204611
:10194800FFF7B8FE00280BDBC34503D84E4408F167
:101958000108E6E706483A460121A8470028F5DAD3
:1019680001B0BDE8F08F00BF72F20300190A04004D
:1019780063F2030010B586B00024CDE90334089B58
:10198800059303AB0093024BFFF74CFE06B010BD66
:10199800A169020008B54FF08053D3F8E8311B68FD
:1019A8009847082805D1044B0122DA6203F5005351
:1019B800DB6A002008BD00BF0000094070B504467E
:1019C8002AF010FF002181F31188BFF36F8F032CD9
:1019D80025D002D8022C08D070BD043C022CFBD8BC
:1019E800BDE87040084609F009BC09F02FF90E4D12
:1019F80004464FF08056D6F8D83128469B68984759
:101A080004280346F7D014F0100000D103B90120D0
:101A180008F05AFE054B0122DA62DB6ADCE7BDE812
:101A28007040012009F01ABC004003400020094022
:101A38002DE9F047DFF85880044607464FF00109C2
:101A480014B93846BDE8F08794FAA4F5B5FA85F5D7
:101A580009FA05F32E0108EB05156FEA030A24EAD3
:101A680003042B7B002BEBD058F806301B694BB9CD
:101A78004644042273682846196807EA0A0725F0CD
:101A8800B5F9DDE7284698470028D9D1F0E700BF27
:101A980050D2030030B51049104889B000222CF00C
:101AA800E4FC0F4D0F4900220023CDE90623002452
:101AB8000E23CDE90334CDE901440B4B00944FF4D8
:101AC800407228460FF002FB084928460FF030FA0A
:101AD800204609B030BD00BFF91A0000B816002032
:101AE800F811002040E50020611E000078F2030094
:101AF80001480FF00BB800BF801000202DE9F04717
:101B0800804621480F4625F049F90646002833D07B
:101B180000252846BDE8F087237B83B12368DB686E
:101B28000BB120469847636883F8069023681B69C1
:101B3800D3B9636804221968204625F057F901369D
:101B480010345445E8D3B8F1000FE2D0002DDFD0AF
:101B58002846FFF76DFF0546002FF7D000214FF408
:101B6800A4702CF081FBF1E7204698470028E0D0CC
:101B780009FA06F31D43E2E7044CDFF814A0054612
:101B88004FF00109DDE700BF3892002050D2030072
:101B980070D20300014B53F82000704794D403001F
:101BA80008B5034608462BB1044A136000F07AFDD5
:101BB800002008BD6FF01500FBE700BF14030020EC
:101BC80010B5044C237813B903480EF09FFF012386
:101BD800237010BD44C000208010002010B50446BA
:101BE8000B4825F0DBF85CB1BFF35B8F094B53E87A
:101BF800001F013943E80012002AF8D1BFF35B8FB8
:101C080005482CF03EFC0548BDE810400EF07EBFAC
:101C18003092002034920020B81600208010002056
:101C28000020064BBFF35B8F014653E8000F43E8E3
:101C38000012002AF9D1BFF35B8F70473092002061
:101C480070B5FFF7EDFF084C084E0546B44200D3C7
:101C580070BD63685B792BB123685B6813B1294653
:101C6800204698471034F1E750D2030070D20300A1
:101C780010B5044C0449204624F07EFC034B1C603C
:101C880010BD00BF000F002080D403002892002060
:101C98000E4A0F48002310B513700E4A13600E4AFF
:101CA8004FF400411360FFF77BFFFFF7E1FF00F0FF
:101CB80081F90A4B0A4918468B4200D310BD1A1AFB
:101CC8005C681211013222711033F5E745C000201B
:101CD800A16D0200309200203492002050D20300FF
:101CE80070D20300014600220148002324F065BC9D
:101CF800000F0020014824F0FEBC00BF000F0020A8
:101D0800024B0146186824F04ABD00BF2892002003
:101D1800014824F07FBD00BF000F00202DE9F041ED
:101D2800364B1878002866D0FFF7E4FF04460028F1
:101D38005DD1334B334C1B68002B19DD2CF04EFB67
:101D48004FF47A72A0FB020302FB0131C30BD4E902
:101D5800002043EA41439B1A4FEAD13140F2E9326D
:101D680061EB0001934271F1000101D3FFF768FFB5
:101D7800D4E9003213F57A7342F10002C4E9003263
:101D8800BDE8F041FFF7C4BF6B685B793BB12178D0
:101D98004B0717D52B6821461B68284698471035EE
:101DA8004545F1D32046FFF7ABFFBFF35B8F164BDA
:101DB80053E8001F013943E80012002AF8D1BFF3A5
:101DC8005B8FB6E720462688C1F3C20700F0A8FA61
:101DD800C6F382160246002EDCD00028DADB012387
:101DE8003946284600F096F9B042D8D3D2E7074DD5
:101DF800DFF81C80D4E7BDE8F08100BF44C00020B4
:101E080030920020B01600203492002050D20300F7
:101E180070D2030070B50D4D297861B90120FFF724
:101E28006DFE0B4C0B4EB44206D3FFF777FF00282C
:101E3800FBD101232B7070BD63685B791BB12368EC
:101E480020469B6898471034EDE700BF45C0002046
:101E580050D2030070D2030000212DE9F047084654
:101E6800FFF74CFE044658B340F267684FF000098C
:101E78003BF098F81B4B1C4A1B58136033B11B4BA3
:101E88001B68092B02DD1A480EF040FE194FDFF8D7
:101E980060A0002544B12046FFF7CAFD044618B9E2
:101EA8004FF0FF384FF0FF39FFF738FF064628B9E3
:101EB800B5B942464B4650460EF062FE3546E9E754
:101EC8004FF0FF384FF0FF39D2E72B689B691BB101
:101ED80000221146284698471035BD42F5D3E8E759
:101EE800054DFAE7080000002C92002034920020EB
:101EF8008010002070D2030050D2030013B5184898
:101F080024F04CFF174B1B7873B1EFF31184202397
:101F180083F31288BFF36F8FFFF700FF84F31188F4
:101F2800BFF36F8F02B010BD0F4B1B68002BF9D0A9
:101F380050B900220023CDE900230C484FF4004299
:101F480000230FF093FFEDE70928EBD107482CF0A9
:101F580098FA074802B0BDE810400EF0D7BD00BFA0
:101F68003492002045C000202C920020B816002092
:101F78008010002010B5064B1B6804469847214680
:101F8800A060044824F098FBBDE81040FFF7B6BFF6
:101F980014030020000F0020044A054B9B1AB1EBE4
:101FA800D30F34BF52F8310000207047C0D103006E
:101FB80050D203000B480C4B30B51B1A0B4CDB08F6
:101FC80000210430994200D130BD10F83120256835
:101FD80002F0070225F007052A4344F8042B0131D3
:101FE800F0E700BFC0D1030050D20300480F002023
:101FF800F8B50B4F0B4DED1B0646ED080024AC421F
:1020080003D14FF0FF342046F8BD57F8340020B113
:102018003146FEF7C7F80028F5D00134EFE700BFD6
:10202800C0D1030050D2030000282DE9F0478846AC
:1020380015461F461DDADFF89890264E4FF0000A25
:10204800A6EB090636095446B24509F1100902D132
:102058002046BDE8F08759F80C0C3B4600792A4623
:102068004146FFF7E1FF844238BF04460AF1010AFE
:10207800EAE7194B194AD21AB5EBD20F26D203EB6D
:10208800C5031C79BC4228BF3C46154EC0B200EBC4
:10209800400056F825300722824023EA020304F064
:1020A8000702824013430021032223FA02F000F0C2
:1020B8000700814202F1030238BF01461E2AF4D10B
:1020C80023F007030B4346F82530C1E70024DCE77B
:1020D80050D2030070D20300C0D1030050D20300D5
:1020E800480F0020F8B5094D094BED1A06460F4672
:1020F800ED080024AC4200D3F8BD002122B23B46D3
:102108003046013424F06AFEA4B2F3E750D203004B
:10211800C0D1030070B14168097973B1002A17DB97
:10212800CBB20C4951F8220003EB4303D84000F02E
:10213800070070474FF0FF31EFE707490748401A9B
:10214800B2EBD00F3ABF01EBC201087918467047CD
:1021580004207047480F0020C0D1030050D203006C
:102168002DE9F04F8FB004AFC1F34A28B8600D468F
:1021780091467B600C0DB8F1000F67D0002607F17F
:1021880014034FF0040B4FF00A0AC7F80C80C7E994
:1021980007667E620193CDF808B0CDF800A007F17C
:1021A8001C03F96832464846FEF7F2FBB0F5006FAB
:1021B800034620D32A48036813F0060F17D06C464D
:1021C8008AB0D9F8041004AB264DC3E9055140F292
:1021D800FF71D9611A464FF400711984224B42F8F5
:1021E800103F4FF412513346FFF7BAFFA5462C377C
:1021F800BD46BDE8F08FC0F30A0804F11700184483
:1022080020F0070080083B60FFF76CFD68F353255A
:10221800044690B13B68154AC7E9083600F1100139
:1022280007F11403F961CDE900A3CDF808B0F96806
:1022380007F11C034846FEF7ABFB68F353257B68A0
:10224800B9682A46204624F004FED0E704F11700B6
:1022580020F007008008FFF745FD0446EDE700BFC2
:10226800580F00208DF20300040000012F6E0200B9
:102278002DE9F04F87B0DDE91279DDE9105A0446FF
:10228800039193469846DFB1CDF800903B465246FD
:1022980010210020CDF81490FEF7A8F9B0F5006FD2
:1022A80006460ED31C48036813F0060F30D01B4AAD
:1022B80040F2FF73022107B0BDE8F04F24F022BEC0
:1022C8003E4605F11700304420F0070004F00704EB
:1022D8008008FFF707FD0BF0070BE40044EA8B14B6
:1022E80044EA462444EA0554054640B13FB1CDF8D6
:1022F80000903B46524631461030FEF777F9039975
:1023080043462246284607B0BDE8F04F24F0A1BD59
:1023180007B0BDE8F08F00BF580F0020CCF20300D3
:10232800406820B1034BC01A40F38F0070474FF04C
:10233800FF307047480F00200EB403B503AB0146C9
:1023480053F8042B0448019303F0E8FB02B05DF84E
:1023580004EB03B0704700BF576F0200CA0605D4EC
:102368008B064CBF02490349FFF7E6BF704700BF21
:1023780024F7030004F303002DE9F04F89B09B46CE
:10238800149B06939DF84CA0159B0593169B179ECE
:10239800049304460D469046BAF1000F00F09D8064
:1023A80006F48073079324F017FD06F0020902462D
:1023B80000283ED091492046FFF7BEFF0746B9F1F5
:1023C800000F08D016F0440F35D18D492A46204613
:1023D800FFF7B2FF074406F0010353B1894B8A495E
:1023E80053F82A20894B2046002A08BF1A46FFF7CF
:1023F800A3FF06F48073002B49D006F00803002BD6
:1024080063D1B8F1000F66D0814942462046FFF7F4
:1024180093FF0546069B3D44002B6DD1049B002B82
:1024280073D1F30700F1E48031462046FFF796FFA9
:10243800D8E00746C3E7774B18680028CAD0764B20
:102448004FF47A791B68B5FBF3F54FF46163B5FB7C
:10245800F0F100FB115509FB05F54FF03C0CB1FB01
:10246800F3F203FB1211B5FBF0FEB1FBFCF300FB2A
:102478001E550CFB131109FB05F50091B5FBF0F592
:102488006649CDE901E52046FFF756FFA2E706F0C9
:102498000803EBB1624B634953F82A202046FFF743
:1024A8004BFF0546B8F1000F05D059494246204672
:1024B800FFF742FF0544BBF1000FABD05A495A461B
:1024C8002046FFF739FF0544A4E74FF0000BE1E78A
:1024D80006F00805E6E745469CE7BBF1010F069BB9
:1024E80006D1002B64D1049B002B7BD000250CE087
:1024F800002BF8D04D485CE04D48069B4D492246DC
:1025080023F0D2FE049B002B68D0DFF82C81DFF883
:102518002C91049F3146102F204628BF1027FFF723
:102528001DFF4FF0000B5D4545DC059B49461A78B9
:102538002046FFF701FF4FF0010B1BF0070F03D1F7
:1025480041462046FFF7F8FE5F453BD9059B4946C3
:1025580013F80B202046FFF7EFFE0BF1010BBBF140
:10256800100FEAD1364920464FF0000BFFF7E4FE82
:102578005A46059B9A5CA2F120015F2928BF2E22AA
:1025880030492046FFF7D8FE0BF1010BBBF1100FC5
:102598001DD01BF0070F03D141462046FFF7CCFEA4
:1025A8005F455A46E5D841462046FFF7C5FEEBE7AA
:1025B8001F485546A1E741462046FFF7BDFE0BF1EF
:1025C800010BB0E720492046FFF7B6FEC5E7059B9B
:1025D8003B440593049BDB1B04939AD1BAF1000F8B
:1025E8007FF41FAF204609B0BDE8F04F24F0A2BC2D
:1025F800064A05492046FFF79FFE15E70CF303003E
:1026080010F30300A4D403008414040007F30300A8
:1026180035F30300409200203C92002019F3030098
:10262800B8D4030039F303003FF303008D6F0200B1
:10263800576F0200255B00004CF3030044F30300CE
:10264800801404004D2004004AF3030073B542F2DD
:102658000F738B4228BF0B4605680F4A04460521B5
:10266800684622F095FF63680C495B6806460B22B2
:10267800284624F051FC63683246694628465B6860
:1026880024F04AFC636806495B681B22284624F04C
:1026980043FC02B070BD00BF761504006AF3030066
:1026A8004EF30300074A00210123904206D8064A48
:1026B80001B901231360054B1860704740085B009F
:1026C8000121F2E740420F003C9200204092002096
:1026D800F8B5074F0D4604464618B44201D12846BE
:1026E800F8BD14F8011BBB6801485B689847F4E71C
:1026F800A0D00300014B03600020704700D5030001
:10270800F8B50546EFF31186202383F31288BFF34B
:102718006F8F0A4B0A4F1C6824B986F31188BFF3E0
:102728006F8FF8BDD4E90123002D18BF134613B1EC
:102738003A68107898472468EEE700BF789200203E
:102748007492002010B50E4BBFF35B8F53E8002F37
:1027580022F0010143E800100028F7D1BFF35B8F96
:10276800D3070CD5074C23681878597824F0FEFA5B
:102778000020FFF7C5FF2AF003F80023236010BDEF
:102788008092002074920020F8B5054600F070F998
:102798002D4E18B933680BB90020F8BD00F06EF85B
:1027A800691C044604D0621C47D0AC42A8BF2C4622
:1027B800EFF31187202383F31288BFF36F8F3068FC
:1027C800224D00283BD000232860336087F311880E
:1027D800BFF36F8F2B68002BDED09F681C4E1D4AFD
:1027E8004FF400400021E7FB006100233046FDF76D
:1027F800BFFC28B1631C03D00121201A07F040FB5D
:102808000EF0CAFE0120FFF77BFFBFF35B8F124B70
:1028180053E8001F41F0010143E80012002AF7D1F4
:10282800BFF35B8F2B6818785978FFF7C7F8FFF765
:1028380089FF0EF0C5FE0120AFE72C46B8E7214618
:1028480000F02CF92860C1E77092002074920020F3
:1028580020A1070040420F008092002001289FBF5E
:10286800044B53F820300B60034B94BF185C0020D6
:10287800704700BF00D50300B3F3030070B5EFF352
:102888001186202383F31288BFF36F8F0A4B1B68CE
:102898007BB1D3E902452BF0A1FD201A65EB0101BC
:1028A800002901DA0020014686F31188BFF36F8FF3
:1028B80070BD4FF0FF30F6E78492002010B5EFF3BB
:1028C8001184202383F31288BFF36F8F00230360E2
:1028D800064B41605A6832B9C3E9000084F3118895
:1028E800BFF36F8F10BD10605860F7E78892002023
:1028F800094A136840B143F00101F028116007D874
:10290800136823F0020305E023F001031360F7E7DF
:1029180043F00303136070472403002008B50349FC
:102928000348FFF7CBFF002008BD00BFF9280000CF
:1029380090920020022810B51AD10139C9B2FD2998
:102948000FD9EFF31184202383F31288BFF36F8F1D
:102958001448036833B10133036084F31188BFF36B
:102968006F8F10BD10490A6822F001020A60F2E771
:102978000328F6D10139C9B2FD29F2D9EFF3118440
:10298800202383F31288BFF36F8F0648436813B17F
:1029980001334360E1E704490A6822F002020A6051
:1029A800F6E700BF989200202003002002281AD1E1
:1029B8000139C9B2FD292ED9EFF31181202383F300
:1029C8001288BFF36F8F144A1368013B136023B159
:1029D80081F31188BFF36F8F7047104A136843F073
:1029E80001031360F4E7032815D10139C9B2FD29A1
:1029F80011D9EFF31181202383F31288BFF36F8F6E
:102A0800054A5368013B5360002BE1D1034A136820
:102A180043F00203E5E77047989200202003002066
:102A2800022805D10139C9B2FD291BD800207047F9
:102A38000328FBD10139C9B2FD29F7D901230A4A74
:102A4800BFF35B8F52F82320BFF35B8F002AEDD1D1
:102A5800BFF35B8F054A1068BFF35B8FD84000F067
:102A6800010070470023EAE7989200202403002021
:102A7800084B094ABFF35B8F1B68BFF35B8FBFF33B
:102A88005B8F1268BFF35B8F1A4214BF01200020CE
:102A9800704700BF20030020240300202DE9F74FD2
:102AA8000F4601A9FFF7DAFE0024804626464FF0BC
:102AB8000C0BA04503D8304603B0BDE8F08FDDF815
:102AC80004A0DFF83CE00F4A0BFB04F90AEB090508
:102AD800D5E901034FF4004C18440021E0FB0CE158
:102AE80000237046FDF744FB8742E4D369781AF85F
:102AF8000900FFF795FF0134002818BF2E46D8E7D4
:102B08003F420F0040420F0002460B4601480DF0BD
:102B180003BF00BF6C10002001480DF075BF00BF57
:102B28006C1000202DE9F0410E4B1C6805460E463E
:102B380017469CB14FF0FF304FF0FF31FFF7E4FF2D
:102B480063682046D3F8108032463B462946C04782
:102B58000446FFF7E1FF2046BDE8F0816FF001046D
:102B6800F9E700BFA09200201FB5CDE901014FF0A1
:102B7800FF304FF0FF310392FFF7C6FF074B1C6889
:102B880024B9FFF7C9FF204604B010BD636820468A
:102B98001B6801A998472468F2E700BFA4920020A7
:102BA800024B0022C3E90022704700BFA492002014
:102BB800024B0022C3E90022FFF7F2BFAC920020CB
:102BC80038B50C4D0C484FF0FF334FF0FF320DF085
:102BD800A3FE2B783BB9FFF7EBFF24F053FA04462A
:102BE80010B901232B70002403480DF00DFF204677
:102BF80038BD00BF47C000206C10002010B5044647
:102C080029F0BFFD03490246204624F0EBFB0020D3
:102C180010BD00BFD5F3030073B51346002201921F
:102C2800044601AA58680A2101F0A8FC019D95B93B
:102C380020EAE0744FF40046294640F2E7304FF4AA
:102C48007A720023C4FB0601FDF792FA2BF00CFB05
:102C5800284602B070BD2A460249204624F0DEFB11
:102C6800019DF5E701F4030008B5034A034924F080
:102C7800B9FB002008BD00BFEEF40300F5F4030023
:102C8800F7B517460023054601AA0A21B86801933B
:102C980001F074FC1749C6B2284624F0B1FB019C28
:102CA80044B122461449284624F0B8FB019C20462A
:102CB80003B0F0BD042E09D910493246284624F045
:102CC800ADFB284624F0E6FB0124F0E77868FFF71F
:102CD8008FF9021E07DA7A680949284624F09EFB14
:102CE8006FF01504E3E7334612B22146204624F07C
:102CF80075F8DCE718F503007EF50300A5F5030079
:102D0800BCF5030007B500230090694604488DF818
:102D180004300EF091FE9DF8040003B05DF804FB4A
:102D2800A170020010B5044607F010F907490246E1
:102D3800204624F057FB2046054924F053FB05485C
:102D480021460EF093FE002010BD00BF47F6030099
:102D580066F60300612D000070B58EB004460D467E
:102D6800D0F89C602BF0C0F903463AF01BF9214AD1
:102D780021491058214A002B18BF1A460092204AB0
:102D88002346844218BF0A4628461E4924F02AFBD7
:102D9800D4E90A23CDE90023284694F90E30227B92
:102DA800194924F01FFB06A9202220460EF0D0F86E
:102DB800636E16490246284624F014FB05A92046EE
:102DC8002BF0A0F9024628B11149284624F00AFB45
:102DD8000EB070BD059B6422F11A4A430091B2FB04
:102DE800F6F20C49CDE901622846324624F0FAFA97
:102DF800EEE700BF080000004CF3030070F6030084
:102E08004E09040073F603007FF60300ABF60300D7
:102E1800C2F60300EFF60300F0B5002591B00446B2
:102E2800294608AF1C2209A83AF0ABF8134E1A221B
:102E3800202138463AF0A5F8214611480EF016FE32
:102E480007AA4FF4006130462BF050F9079A009713
:102E5800C2F5006164234B43DB0A05934FF400631A
:102E6800CDE90313CDE90132204606492B46A6F1E8
:102E7800400224F0B7FA284611B0F0BD400A0120FC
:102E8800912E000040F7030070B50446D0F89C600E
:102E980088B00D4607A92BF035F9024628B10F492D
:102EA800284624F09FFA08B070BD20462BF01CF984
:102EB800079B0096F11ACDE90131094B64224A4378
:102EC800002818BF0346B2FBF6F20649CDE90362B3
:102ED8002846224624F086FAE5E700BFC2F603003A
:102EE80070F6030089F7030038B51346054610222B
:102EF8005868002122F07EFC0446FFF703FF38B92A
:102F08000E492246284624F089FA6FF0150038BD8C
:102F18003AF048F80A4B1B589C4204D10949284604
:102F280024F07CFAF1E720460EF0E6F92846064937
:102F3800224624F057FA0020E9E700BFEDF7030026
:102F48000800000008F8030030F8030038B51346FD
:102F5800054610225868002122F04CFC0446FFF771
:102F6800D1FE38B90E492246284624F057FA6FF0A8
:102F7800150038BD3AF016F80A4B1B589C4204D18C
:102F88000949284624F04AFAF1E720460EF0D2FA19
:102F980028460649224624F025FA0020E9E700BF22
:102FA800EDF70300080000006FF8030095F8030030
:102FB80038B51346054610225868002122F01AFC3D
:102FC8000446FFF79FFE38B90E492246284624F0EA
:102FD80025FA6FF0150038BD39F0E4FF0A4B1B588D
:102FE8009C4204D10949284624F018FAF1E7204602
:102FF80002F0F0FA28460649224624F0F3F90020A8
:10300800E9E700BFEDF7030008000000D0F803006F
:10301800F5F803002DE9F04F87B0044668460DF037
:103028001DFA009F284ADFF8A4A0DFF8A4B02423E3
:1030380003FB00770821204624F0C7F9009DBD4214
:1030480003D3002007B0BDE8F08F2B680BB11A78C6
:1030580032B92B461F4A142101A822F099FA01AB74
:1030680052460821204624F0B0F928462AF004FEEA
:10307800194B1A4A002808BF5B460821204624F04D
:10308800A4F92B6AA3B11E6896B1336883B1144AB8
:103098000821204624F099F9B1464FF0000833681A
:1030A800104A434506D8104A0821204624F08DF9D5
:1030B8002435C4E759F8043F0821204624F085F94F
:1030C80008F10108EBE700BF3CF903004BF90300E6
:1030D80033F9030046F903002DF90300D1FF03007B
:1030E80050F903008314040024F703002DE9F0418C
:1030F80014468846074610226068002122F07AFBB1
:10310800B8F1020F064607D8254A20230821384679
:1031180024F05BF9336816E00A220021A06822F047
:1031280069FBC5B21E4A2B460821384624F04DF9E2
:10313800B8F1030F1AD1102D0CD0202DEAD0082D8C
:103148000BD13378DBB2174A0821384624F03DF911
:10315800002009E033889BB2F5E73846124A082177
:1031680024F033F96FF01500BDE8F081E068102213
:10317800002122F03FFB0D4A034604460821384649
:1031880024F023F9102D06D0202D07D0082DE4D1E6
:10319800E4B23470DCE7A4B23480D9E73460D7E70E
:1031A80091F90300BCF90300A6F90300CDF9030067
:1031B8002DE9F04F87B000230193524BDFF848A167
:1031C80091460122074688461A6002F043FD4FF0F7
:1031D800FF3520262C4649465246404602F05EFD01
:1031E800411C06D16A1C41D14849384624F016F9D9
:1031F80017E073281AD0772828D0612811D1DFF872
:1032080010B101AADBF80000102101F0B7F9019B09
:103218000546002BDFD0DBF800203E49384624F075
:10322800FDF86FF0150007B0BDE8F08FDFF8E0B0EB
:1032380001AADBF80000002101F0A0F9019B044677
:10324800002BC8D0DBF800203349E7E7DFF8C0B02F
:1032580001AADBF80000002101F090F9019B064665
:10326800002BB8D0DBF800202C49D7E7631C01D12C
:103278002B49BAE75FFA86F8C6F3C406002C3FD09C
:1032880002AB29461A46A6EB050C0CE0B8F1100F64
:103298001DD0B8F1200F20D0B8F1080F2AD1087836
:1032A800187031443344A64203D80CEB01001028AF
:1032B800ECD9102CA14628BF4FF0100929464B46DF
:1032C800384601F033F81035A4EB0904D6E708882E
:1032D80080B21870000A5870E3E7086818704FEA5F
:1032E800102E83F801E04FEA104E000E83F802E03A
:1032F800D870D6E70B4A0821384624F066F890E7DC
:10330800204690E7980300201BFA030022FA0300E6
:1033180070960020E1F90300F4F9030007FA0300AE
:103328003FFA0300A6F9030070B50F4E0446337840
:103338000D4671B123B1BDE870400C4924F06EB858
:10334800012333700A49204624F04CF801233370D6
:1033580004E083F001033370002BF3D129462046A3
:10336800BDE8704024F0B4B848C0002059FA030002
:1033780094FA030070B504463B480378182B02D131
:103388000B78112B31D0013A0B468D18AB4225D161
:103398008B5C0A780370A2F13003092B334C04D9F3
:1033A80022F02003413B052B04D823683049CA5436
:1033B800013323602368022B33D110222C480021CB
:1033C80022F018FA2B4A136803F8010B13602A4AF3
:1033D8001368013313600023236022E013F8016BA4
:1033E800182ED3D11E78112ED0D1234D23492A6807
:1033F800204623F0F7FF20460021FFF795FF204BDA
:10340800187870B91F4A2B681168042B0ADC08B1B8
:1034180011602B6013F003010BD1126813681BBAFB
:10342800136070BD086800BA41F8040B043B012022
:10343800EBE75B4203F0030358BF5942022904D16A
:10344800126813885BBA9BB2EAE70329E9D11068CE
:1034580002681104C2F3074301F47F010B4302F42D
:103468007F4213430360DCE749C00020B492002088
:103478004BC00020C0920020B8920020BEFA030082
:103488004AC00020BC9200202DE9F84F0C462B4979
:10349800DFF8AC80DFF8AC90DFF8ACB000230B604D
:1034A8002A4988F8003006460B601546012C2F463D
:1034B80055F804AF1ED902224946504639F09EFC01
:1034C80080B99AF80220003A18BF01229244204994
:1034D8000222504639F092FC30B9012388F80030B6
:1034E800013CE3E70022F1E749465046FCF75AFE63
:1034F800A8B9043700221146786822F07BF9154BE9
:10350800002211461860786822F074F9124B1349AA
:1035180018603046FFF708FF0020BDE8F88F9AF8DA
:1035280000202D2AE6D19AF80120002AE2D052463E
:103538005946304623F056FFD2E700BFB492002028
:103548004AC00020D8FA0300DEFA0300B89200202F
:10355800DBFA0300C0920020BC9200207D330000FB
:1035680007B50A482AF088FB60B1094A074912687A
:10357800084804230093012300F03EFF002003B015
:103588005DF804FB6FF01200F9E700BFA0D003005C
:1035980008D6030070D2030010B54468C4E90012CD
:1035A800A36042681346402153F8404B536251636D
:1035B800002302F13801C2E90413C2E90A33C2E95F
:1035C8000633082113631162C2F8B830A36823B127
:1035D8009B6C13B1044920469847A3689B6A0BB1BA
:1035E80020469847002010BDF53500002DE9F34727
:1035F80005460C4683685B6C03B19847AB685B6B08
:1036080073BB4FF0000904F1240704F12808218E48
:10361800238D626B5B1A9BB2D31A934228BF134661
:10362800414601AA384623F0FDFA8246002844D0D4
:10363800AB6801999B69002B33D00246284698470E
:10364800064688B332464146384623F021FB5645A4
:103658004FF00109DBD0D4E901310020984703E09D
:10366800284698470028CCD1AB685B6A002B37D135
:10367800628BE38A9B1A226A9BB2934204F1100779
:1036880004F11A0828BF1346414601AA384623F018
:10369800C9FA064658BB284623F014FDC4F8B8609A
:1036A80031E06FF05706CDE702464146384623F031
:1036B800EFFAB9F1000FD7D0CDE71748036813F038
:1036C800060F03D0154A022123F013FCAB689B694F
:1036D800002BEED001220DF1030128469847E8E7B8
:1036E800284698470028C3D102B0BDE8F087AB68E8
:1036F80001995B6963B102462846984702464146EC
:10370800384623F0C5FAD4E9013101209847EBE7A0
:103718006FF05702F3E700BF880F002045FC030055
:103728000048704770D2030010B58168044618310C
:1037380001F088F9A168034A20461831BDE8104015
:1037480001F026B987FC030038B58368D3F87832CE
:10375800DB0704461DD4C06924F0F2FB60680368E7
:103768005B689847054620B9E06824F0BEFDA36869
:103778001D75A3685B6C13B1294620469847A3685A
:1037880039F010FC0022C3F82023034B185801F02D
:1037980021FF6FF00F05ECE708000000014923F056
:1037A8002FBD00BF24F70300F7B504468068D0F8A2
:1037B80078325A070D4605D5002123F049FDE06807
:1037C80024F065FDE368DB6873B9002D3BD0A6687B
:1037D80006F15607384623F020FD002835D0394633
:1037E80006F5AB70FCF7E8FCA268E0680DF106038B
:1037F8005632294624F04EFD58B9A06800F5AB7141
:103808005630FCF7D9FCA068563023F006FDADF819
:103818000600204624F04FF9A368D3F874329B06BB
:1038280003D50B49606923F0EBFC204600F00CFF40
:10383800A268BDF80630A2F85230A2682046A2F865
:10384800503024F09DF803B0F0BD86F85601CBE760
:10385800F8D303002DE9F04FA7B004465422002105
:1038680011A839F08EFB0023CDE90533A368204663
:103878005633029324F026F9204624F06AF810B94A
:103888006069FFF78BFFA06814220021183039F017
:1038980078FB204624F003F8A168E068B1F85020CE
:1038A8005631002624F02DFD204624F0BCFD4FF0B3
:1038B800FF37B24603960DF14408B3463546B14684
:1038C800DDE90532012A6DD0132B6ED85FBBBBF141
:1038D800000F0AD0204624F0C7FDA26814235632F0
:1038E80011A90DEB030023F059FEB9F1000F0CD01C
:1038F80099F81130FE2B08D1059B26AA02EB83020A
:1039080052F8542C0AB101330593A068059D436A07
:10391800002B40F0B680CEB1C3699E422DD00D96E3
:1039280000F1180524E0029A0223414606A823F074
:1039380035FE0699D8F804200292034631B10129D0
:103948000AD148B16D4A204624F06EF96FF0070598
:10395800284627B0BDE8F08F059B002B34D0D8F857
:10396800000001F08FF898B166B1A5680D9618357A
:103978000CAE0FCE0FC533682B602046FFF7D4FE80
:103988000125E5E75E4A0121204624F04DF9DDE7EF
:10399800059BCBB1D8F800202946204601F014FA3F
:1039A800022809D1059B132B91D9069B022B8ED196
:1039B800544B554A0121C6E7032805D0059B01331E
:1039C80005934FF0010B7BE7039B33B9D8F8001040
:1039D80007AA484623F0D9FE054608F10408013F26
:1039E8009DB3EB68BBF1000F08D0F3B1204624F07B
:1039F80069F8204623F0C4FF444AC4E7ABB1A36882
:103A0800DDF814A0AE4603F1180CBEE80F00ACE8D0
:103A18000F00DEF80030CCF80030AB682BB96B7CB7
:103A2800FE2B04BF2F7C07F1FF37D5F804C0BCF18B
:103A3800000F08D0AE46BEE80F000CAE0FC6DEF889
:103A4800003033606646A94603E0059B53B1012365
:103A58000393069B17B9022B7FF432AF059B013302
:103A680005932DE7A368DB6A13B1DB68002BEED161
:103A7800274B0093274A119B0121204624F0D4F8B4
:103A8800E5E790F82830A5EB0A05BBB190F82910B6
:103A98004FF6FF72FF2918BF0A469D4202D313440E
:103AA8009D420BD983691C4A0121204624F0BCF8A9
:103AB8002046FFF739FE6FF0150549E7012123F08D
:103AC800BCFBA06800F5437023F0DBFBA36811AAD8
:103AD800294602EB8A025B6A204698470546A06899
:103AE8004FF0FF324FF0FF3300F5437023F070FBC7
:103AF800A068002123F0A1FB2AE700BF95FC030082
:103B0800A9FC03000AFD0300D7F50300C7FC030066
:103B1800F6FC0300FEFF03002EFD030010B58368CA
:103B280002221A7583689B6C0446BBB923F027FBF5
:103B38008368D3F87832DB040BD50321084B094A94
:103B480024F072F8A0686FF4805100F51E7023F01D
:103B580030FB2046BDE8104000F0FCBE10BD00BFA1
:103B680049FD0300841404002DE9F04F04468068E1
:103B7800B1B0012100F51E7023F00CFBA3681B7D7A
:103B8800022B20D100230993A36860689E6C036808
:103B98001D6909AB0EB310221BA9A847099B93B155
:103BA800A068012123F049FB099A1BA92046B047C8
:103BB800A068002123F041FBA3689B6C002BE3D194
:103BC8002046FFF7ABFFA0686FF0010100F51E70FB
:103BD80031B0BDE8F04F23F0ECBA01220DF123011A
:103BE800A847099B002BEED09DF923209DF8233090
:103BF800A068002AC8DB427D032A00F2F482DFE8CD
:103C080012F0040075028C02F2020D2B67D00A2B09
:103C180043D0B0F87822092B6FF3CA02A0F87822B3
:103C280072D029D8002B00F00381082BA06800F07F
:103C3800E9810246D2F87412890740F1F980013B04
:103C4800162B00F2F580DFE813F0B702FA01FE0147
:103C5800F601B1021002F300F300F300F3001402BE
:103C68001802F3002D02F3003202F300F300F30010
:103C7800F3003402F30049021B2BA06841D07F2BCC
:103C880000F0CC81A3F120015E290246D2D801219F
:103C980023F0DEFA9DF82310B8E0D0F87822C2F3BA
:103CA800C7022AB1D0F87822C2F3C7020A2AC0D1C3
:103CB800B0F8782263F3CA02A0F87822A568B5F8AC
:103CC8005010C1B9284623F0C3FAE06824F0DFFA9F
:103CD8006069FFF763FD2046FFF720FF54E7D0F83F
:103CE8007822C2F3C702002AE2D0D0F87822C2F3C1
:103CF800C7020D2ADBE72046FFF7ACFDC5F8240311
:103D0800E9E70123437593E0A068D0F874329B0774
:103D180040F18E80012123F09BFAA068B0F8503062
:103D2800FF2B00F08580B0F8522000F1560100F515
:103D3800AB7039F0FEF8A368B3F85220134400259D
:103D480083F85651A2681BA9142302F5AB720BA87D
:103D580023F024FC0B9914296AD830AB03EB8103B8
:103D680043F8545CA368B3F85220002A52D0134495
:103D780093F85530202B02D0093B042B4AD8002950
:103D88004BD100250A950A9B30AA02EB8303002633
:103D980053F854AC504623F040FAB3468146B04637
:103DA800374616AA3946284600F0AEFB03460028D7
:103DB80042D1012E68D10A9B30AA02EB830353F843
:103DC800540C23F02AFAA2680646183241462846BF
:103DD80000F09AFB0568284623F01FFA864205D0B2
:103DE800821B92B2A919204623F065FFA068B0F89B
:103DF8005230034493F85630202B34D0093B042B1F
:103E080031D9D0F87432DF0732D42021204600F0AF
:103E180069FD0DE00129B4D9013900200CAB0093EC
:103E280001900AAB1BAA23F0DBFC05460028AAD1A7
:103E3800606923F053FBA7E61B6803934A46514683
:103E4800184638F0DBFF60B9039B1846FCF7BCF94D
:103E5800584538BF58461FFA80FB002E08BFB846A1
:103E6800013601379DE70121204623F0BDFDDFE73C
:103E7800002123F0F7F92021204600F033FDA06847
:103E8800012123F0EFF9D3E70490D1D90A9A30AB96
:103E980003EB8202C14652F8543C0393184623F0C0
:103EA800BCF9A268049B0590A2F840300496A26869
:103EB80049461832284600F027FB039BD0F800A09B
:103EC80009F101094BB1BAF1000F06D0059A19465C
:103ED800504638F093FF0028E9D1A168BAF1000FE5
:103EE8004ED1A1F840A0049B013B0493DFD1606947
:103EF800FFF754FC204600F02DFD0A9B30AA02EB88
:103F0800830308F1010A53F8540C23F086F941465B
:103F180011AA8146284600F0F7FA0746A0683968D2
:103F2800FF2200F5AB7038F07BFF3B6803934FF638
:103F3800FF77B84616AA514628460AF1010B00F049
:103F4800E3FA002852D0A168036801F25511002253
:103F580011F801EF985C704503D110B10132424568
:103F6800F6D1B9F1000F01D04A4507DBBA4206F194
:103F7800FF36A8BF3A46012E97B237D0DA46D9E7BE
:103F88009A48069123F049F9069907914A8F00EB60
:103F98000B07BFB2121A504692FBF7F292B2069282
:103FA80023F03BF90799069A3F1AB1F8400000F14F
:103FB800010CA1F840C0B0FBF2F102FB110080B285
:103FC800BFB260B9894B8A4ACDF800A006212046C5
:103FD80023F02AFE3946204600F020FB83E7854A75
:103FE80053460621204623F01FFEF3E7002F3FF437
:103FF8001FAF0399A7EB090292B24944204623F068
:104008005AFE15E7D0F874329E077FF511AF0121EB
:1040180023F01EF9204623F06FFE09E7D0F874322A
:104028009D077FF505AF012123F012F9A368D3F8A6
:1040380074321807EED4204623F03FFEF8E62046F7
:1040480023F049FDF4E6204623F03CFD204623F00A
:1040580080FC10B96069FFF7A1FBA068012123F07B
:10406800F7F82046FFF75AFDE2E6204623F03CFD2C
:10407800DEE6204623F043FDDAE6D2F874329F06E6
:1040880003D55D49606923F0BBF8A368D3F874329F
:104098009E0603D55949606923F0B2F8204600F01E
:1040A80059FCC5E600212046FFF77EFBC0E601214A
:1040B800F9E7204623F0FFFC204623F060F80121B1
:1040C800A06823F0C5F8A368D3F874329D067FF57D
:1040D800AFAE4B49606923F093F8A9E6204600F09B
:1040E8002DFBA068012123F0B3F8A1E65B2B01D1D9
:1040F800022307E6D0F87422900706D5622B08D170
:104108004FF0FF31204623F098FCA36800225A752F
:104118008EE6662BF9D10121F4E700224275A268E8
:10412800D2F8741289077FF52FAD313B1B2B3FF670
:104138007FAE01A151F823F0BD410000C941000044
:10414800DD410000B1410000393E0000393E000069
:10415800393E0000393E0000393E0000393E00007B
:10416800393E0000393E0000393E0000393E00006B
:10417800393E0000393E0000B7400000AD40000065
:104188007340000047400000393E0000B541000080
:10419800393E0000C1410000393E0000393E0000B0
:1041A800393E0000CD41000003235375204623F01B
:1041B80089FC3DE603235375204623F07CFC37E653
:1041C80003235375A068D0F8741201F0010181F03F
:1041D800010156E603235375A368D3F874329B078D
:1041E8007FF526AE27E700238CE500BF4BF30300DD
:1041F8008DFD030084140400FDD3030002D40300E2
:10420800F8D303002DE9F04104468068154600F50F
:104218001E70002937D04FF4804122F0BBFFA368FD
:10422800DD646068036800219B689847002851D1C5
:10423800204623F04DF800284CD1274E274FDFF8B1
:10424800A080A06800F52F704FF0FF324FF0FF33C9
:1042580003210DF075FE0546A068CDB140F26762F6
:10426800002300F5437022F0B3FF98BB20462B468D
:104278001C4A012123F0D8FCA068BDE8F04100F5F4
:10428800437022F0FEBF6FF4804122F092FFC6E730
:104298004FF0FF334FF0FF3200F5437022F098FFE4
:1042A80032460221204622F095FF3A46294620460A
:1042B80022F090FF20464246012122F08BFF6068E1
:1042C80003685B6903B19847A06800F5437022F062
:1042D800D8FFB6E7BDE8F08151370000713B000018
:1042E8008F72020093FD030010B50B49044623F0BA
:1042F80079F82046094923F075F82046084923F043
:1043080071F82046074923F06DF82046064A002137
:1043180000F03EFB002010BDAAFD0300E8FD0300ED
:1043280047FE03009BFE030035FF0300F8B5174660
:104338001E460A462949044623F054F83EB33A7803
:104348002749204623F04EF801256A0703D125495D
:10435800204623F047F8AE421ED97A5D2049204610
:1043680023F040F80135102DEFD11F49204623F0E6
:1043780039F8B6B91B49204623F034F80125AE4276
:104388002B4610D81749204623F02CF815E017497A
:10439800204623F027F801251449204623F022F867
:1043A800E0E700252B46FA5C1149A2F120035F2BB8
:1043B80028BF2E22204623F015F80135102D06D0EF
:1043C8006B07DCD10749204623F00CF8D7E72046D5
:1043D8000849BDE8F84023F005B800BF4BFF0300CB
:1043E80044F303004CF30300801404004AF3030071
:1043F8004D20040052FF03002DE9F0430446806875
:104408008846D0F8201389B015461F46002960D188
:104418004FF44A7238F0B5FDE06823F0EAFFA0686F
:1044280000F5437029F0D6FC4FF42F794FF41F762E
:10443800A06830442AF063F9A0680022831901219A
:10444800484410362AF02DF9B6F52F7F09F11409E2
:10445800EED1A36900261E60A068022100F51E7037
:1044680022F098FEA36850225A87A36818221A8758
:104478002168204622F0E0FFA368174A66F3820508
:10448800C3F874526068036841461D682346A8470C
:104498000546D0B9A36801221A75D4E90A01002299
:1044A8000023CDE906230E230393109B0495CDE941
:1044B80001730094094B4FF446620CF007FEA368A1
:1044C800C3F82003616A0CF033FD284609B0BDE843
:1044D800F0836FF07705F8E72F7202000D420000B5
:1044E80010B5044613460A460146064801F016FB75
:1044F80023691B7923B12046BDE8104022F0EEBFA6
:1045080010BD00BFFD74020038B50B46154648B90A
:104518001449154A521AB3EB920F05D251F8235099
:10452800284638BD84680CB90025F9E70F4A94423B
:104538000AD30F4A944207D2184622682946904760
:104548002B68002BECD1EFE70A4A944202D30A4ABF
:10455800944205D3246814225343E518E358F0E73E
:104568000133F8E7A0D20300CCD20300F8D303004C
:10457800F8D30300CCD20300F8D30300F7B50378CF
:104588002D2B0446164605D16FF015033360002025
:1045980003B0F0BD38F006FD0B4F00230546C351AC
:1045A8000A46204601A921F025F9EB59222B02D110
:1045B8006FF02103EAE7002BE6D1019BA342E3D089
:1045C8001B78002BE4D0DFE70C0000008368D3F8E9
:1045D80074329B0603D50249406923F09BB97047A2
:1045E80008D40300014923F095B900BF24F703005C
:1045F8000A1E0DDC0ED042238168D1F87412890698
:1046080008D5002A04494069B8BF524223F082B94C
:104618004123F1E7704700BF6EFF03000A1E0DDC5F
:104628000ED044238168D1F87412890608D5002A6F
:1046380004494069B8BF524223F06CB94323F1E7FB
:10464800704700BF6EFF03002DE9F0478568DFF86B
:104658006890044605F15600FBF7B6FD002395F86F
:104668003C7086B29846A268558FED1BB54209DBAF
:10467800002E1FDD563360691049BDE8F0471A4423
:1046880023F048B91D442A44563392F856A082F8BC
:104698005680A26860691A44494623F03BF9A3682A
:1046A8002B4483F856A0A3685B8FDB1BF61A002700
:1046B8002B46D8E7BDE8F087D7F50300841404003B
:1046C80008290A4617D8836893F83E10914212D0F9
:1046D80083F83E208368082AD3F8743205D09906F7
:1046E80009D50549406923F015B99B0603D5034947
:1046F800406923F00FB9704775FF03000DD403001C
:1047080038B50D4609780446FFF7DAFF6A78072AB4
:1047180011D8A36893F83F1091420CD083F83F203A
:10472800A368D3F874329B0605D560690249BDE8D1
:10473800384023F0EFB838BD7EFF0300F8B5836832
:10474800B3F850200446002A55D0B3F85210002977
:1047580051D0553103F156050B441846A84206D3EB
:10476800014611F80169202E3CD0A8423CD286B2FD
:104778009DB2AB1B9BB2591C471CD21A0144384648
:1047880038F0E5FBA268B2F85030711B13FA81F3D8
:10479800A2F85030A368B3F850201344002283F8DD
:1047A800562009B2204623F01FF9A368D3F87432C3
:1047B8009A0603D51049606923F0ACF83B460F4AC6
:1047C8000821204623F030FA2046FFF7FFFEA368B1
:1047D800D3F874329B060ED560690949BDE8F840E4
:1047E80023F098B80846B9E7014611F80169202E68
:1047F800BDD00846B9E7F8BD12D4030084140400FC
:1048080016D403002DE9F84F04460F4690460AB126
:10481800FFF7DCFEA668D6F87432B6F852505B078C
:1048280024D505F156003044FBF7CEFC2A4E054648
:10483800B5B9A368B3F85020A3F85220A06823F0B4
:1048480076F830B1B8F1000F00D017B16069FFF702
:10485800C9FE7942204609B2BDE8F84F23F0C4B832
:104868006069314623F056F8013DE1E73046FBF731
:10487800ABFCB6F85090738F19FA80F915FA80F0EE
:10488800B0FBF3F2B9FBF3F39A42AA461BD0134DDF
:10489800A3684845CDDA5A8FB0FBF2F302FB130345
:1048A800461C13B96069FFF79DFEA3685344204670
:1048B80093F856300AF1010B2A46082123F0B4F97F
:1048C800DA463046E4E75635054A7319082120468A
:1048D80023F0AAF9ADE700BF4E0904004D200400FB
:1048E8008414040013B583688DF80710D3F8742274
:1048F8000446D00725D5B3F85210B3F850208A42A1
:104908001FD0481CA3F852000B449DF8072083F8D9
:104918005620A368D3F87412890710D5D3F87432D7
:1049280060690B4913F0040F18BF2A2222F0F2FF26
:10493800204623F00EF810B16069FFF753FE02B06D
:1049480010BD01220DF10701204623F07AF9F6E7A0
:104958004D20040010B504468368094A022123F05B
:1049680063F9A368D3F874329B0707D52046FFF78D
:104978006BFE2046BDE8104023F011B810BD00BF03
:1049880084140400014923F051BB00BF24F703003D
:104998002DE9F04F0E46002189B0044617460D4612
:1049A80003AA304601F10108FFF7AEFDB0B995B191
:1049B80027B13A460821204623F036F91E4FDFF882
:1049C8007C90DFF87CA0002103AA304601F10108A1
:1049D800FFF79AFD60B909B0BDE8F08F006810B123
:1049E800FBF7F2FB80B2854238BF05464146D7E760
:1049F80003688BB11A787AB1D0F804B04A46CDE989
:104A0800005308213B46204623F00EF9BBF1000F66
:104A180004D16069FFF7B6FF4146D5E75246204604
:104A28003B46082123F000F9AA1D92B259462046B8
:104A380023F009FBF0E700BF9CFF030087FF03009A
:104A48003FF30300F7B50F6805460E46A7B1384691
:104A5800FBF7BAFB84B2094B00932846084A3B4649
:104A6800082123F0E1F8E21C716892B2284603B0ED
:104A7800BDE8F04023F0E7BA3C46ECE798FF0300B6
:104A88008EFD030010B507490446FBF78BFB38B1D0
:104A980005492046FBF786FBB0FA80F0400910BDB7
:104AA8000120FCE78EFF030091FF030010B5836827
:104AB800D3F874329B06044603D50649406923F0AF
:104AC80039FBA36850225A87A36818221A87002046
:104AD80010BD00BF1AD4030008B5836902491A68DB
:104AE80022F080FC002008BD9FFF03002DE9F34160
:104AF8000D490E4C0E4EDFF83C80054622F072FC44
:104B08000022B44202F1010703D3002002B0BDE83D
:104B1800F081636A0093A36892B24146284622F066
:104B280061FC30343A46ECE7AFFF030070D2030073
:104B3800A0D20300C7FF030008B5024922F07CFC9D
:104B4800002008BD25F7030073B50E4E0446002566
:104B5800A268E0680DF1060302F5AB72012123F0AB
:104B680099FBBDF80600A36840B12A4603F5AB736C
:104B78003146204622F036FC0135E9E783F8560134
:104B880002B070BDD8FF030010B5044622F098FCAF
:104B980003490246204622F025FC002010BD00BF34
:104BA800D4FA0300022907B50BD1536800931268A1
:104BB8000B4B0C4922F032FC6FF0150003B05DF886
:104BC80004FB8368084AD3F87432084913F0020FCB
:104BD800074B18BF1A4622F005FC0020EEE700BF7D
:104BE800E6FF0300FBFF0300E2FF030004000400EC
:104BF8009E1B040010B58368D3F874329A060446E5
:104C080003D50749406923F095FAA368D3F87432AD
:104C18009B0603D50349606923F08CFA002010BD78
:104C280021D4030026D40300F0B5012985B0044639
:104C38000AD05368009312685D4B5E4922F0EEFB80
:104C48006FF0150005B0F0BD8368D3F8743299068B
:104C580003D55949406923F06DFA6FF0F9012046F0
:104C6800FFF7C6FCFA212046FFF7D8FCA06800250C
:104C78004FF48072294600F5AB708DF80B5038F070
:104C880080F94E49606923F055FA606922F026FCE4
:104C98004FF47A766068036801221F690DF10B01F1
:104CA80003ABB847039BEBB9013E4FF47A70B6B239
:104CB8000BF0B8FB002EEDD1A368D3F874329B0635
:104CC80003D53F49606923F035FAA3683D4950226E
:104CD8005A87A368182220461A8722F091FB6FF0A2
:104CE8000700AFE79DF80B20A3681B2A53D093F861
:104CF80056111B29CED1522A4DD15A19002382F8B8
:104D08005631A66896F857215B2A2BD106F2571020
:104D1800022510F8011F2A463B2905F10105ADB20D
:104D280023D1FF2AC8D002F5AB7216FA82F100220D
:104D380011F8010F18BB86F85601FA2AA16828BF96
:104D4800FA224A87FA2BA26828BFFA231387A36896
:104D5800D3F874329A0603D51949606923F0EAF941
:104D680000206FE786F85631A6E703EB8303303956
:104D780001EB4301B5F5807F8BB2CAD19CE70135C1
:104D880002EB8202ADB2303800EB4200B5F5807F0D
:104D980082B2CDD190E72B440135ADB2092D83F80D
:104DA80056217FF677AFA368002283F8562183E760
:104DB800E6FF0300FBFF03002CD403004F000400B0
:104DC80030D40300150004002DE9F04F074689B0E0
:104DD8001546894621B1104623F011FB00285BD106
:104DE800032455E05C463CE029460AF5AB7038F0F0
:104DF80033F80646002854D0FBF7E6F982B2601C67
:104E080001323146304438F0A2F82246594630463D
:104E180038F08FF84FF020033355BAF85430013387
:104E28001C44AAF8544008F10108002401994B1CBD
:104E380003AA48460193FFF767FB0646E8B13168C5
:104E48000022284623F09AFC0028EFD1D6F800B0BB
:104E5800D7F808A0BBF1000FC4D05846FBF7B4F947
:104E680084B2BAF854302344FF2BBDDD0E4A2B46DA
:104E78000321384622F0D8FE0124B8F1000F07D0EC
:104E8800B8682A4600F1540100F5AB7022F056FCD0
:104E9800204609B0BDE8F08F4FF0000841460224D3
:104EA800C5E70224E9E700BF0C05040038B50C4645
:104EB800154623F0E9FA034B43F8305003EBC003DF
:104EC8005C6038BDC40D00202DE9F843054600AFED
:104ED8000C46002948D0DFF8B890D9F800305A07B6
:104EE80042D06E468AB0D1E90001A3686A46DFF86D
:104EF800A4C04FF00508C2E905C0C2E9071342F88B
:104F0800108F00234FF421514846FDF729F9D9F8AD
:104F180000305B07B54627D08AB0D4E9030163693E
:104F28006A46DFF874C0C2E90713C2E905C042F84F
:104F3800108F002348464FF42151FDF711F9D9F895
:104F480000305807B5460FD0E3690121134A484697
:104F580021F0D8FFD9F80030590705D0A369104AC5
:104F68000121484621F0CEFF012D0AD1EFF3058338
:104F780007480268520704D00A4A103B294621F024
:104F8800C1FF214628460BF089FABD46BDE8F883E3
:104F9800780F00206405040093050400C20504008E
:104FA800D1050400FF05040030BFFFF7FDBF00BFB7
:104FB8002DE9F0410B4EDFF8308006EB0807CC1BDB
:104FC800054632460949204637F0B3FFA019424644
:104FD8000021083C37F0D5FFC5F8A84007F10800C4
:104FE800BDE8F0810000000008000000F8D30300CD
:104FF800054B9A699B689A421FBF044A536843F05D
:1050080080535360704700BF90BE002000ED00E061
:10501800F8B5374C23685B0706460D4603D035497B
:10502800204623F03DFA344B9B6ADF0451D52368B0
:10503800580703D031492E4823F032FA17202E4B57
:105048009B6A190507D523685A0703D02C492848B5
:1050580023F026FA1820284FBB6A9B0519D5236828
:10506800580703D02749224823F01AFABB6BBA6ABB
:1050780011040DD52268520704D0234A1C48012187
:1050880021F040FF26B11C4A936A23F4004393623F
:105098001920194B9B6A5B0507D523685F0703D066
:1050A8001A49134823F0FCF91A20134B9A6AD605BB
:1050B80011D52368590703D015490D4823F0F0F995
:1050C8001B200D4A936A43F47F43936200232B709D
:1050D800F8BD1620B3E79B6A9A04F2D523685B07EC
:1050E80003D00C49024823F0DBF91C20E9E700BF94
:1050F800780F00201206040000ED00E028060400E6
:10510800390604004C060400650604007A0604000B
:1051180095060400AD06040010B52D4C23685A0707
:1051280003D02C49204623F0BBF92B4B9B6A9B01EB
:105138004BD52368580703D02849254823F0B0F9F0
:105148001E20254B9B6AD90107D523685A0703D02F
:1051580023491F4823F0A4F91F201F4B9B6A1B03F8
:1051680007D52368580703D01E49194823F098F932
:105178002120194B9B6A590307D523685A0703D086
:105188001949134823F08CF92220134B9B6A9B037F
:1051980007D52368590703D014490D4823F080F92F
:1051A80023200D4B9B6ADA0307D523685B0703D0DE
:1051B8000F49074823F074F92420074A936A6FEAD5
:1051C80003436FEA1343936210BD1D20B9E700BF84
:1051D800780F0020DC06040000ED00E0F40604006F
:1051E80007070400210704003F07040064070400C0
:1051F8007E0704002DE9F047454D2B68894659077D
:105208008046174603D04349284623F049F9424BC4
:105218009B6ADA0639D52B685B0703D03F493C48BF
:1052280023F03EF911243C4B9B6A1E0707D52B68D7
:10523800580703D03A49364823F032F91224DFF8E8
:10524800D8A0DAF82830990721D52B685A0703D057
:1052580034492F4823F024F9DAF83460DAF8283092
:105268001B0651D52B685C0705D02F4A28483346C2
:10527800012121F047FEB9F1000F04D0264A936AB4
:1052880023F080039362132403E01024CBE76FF02C
:105298001506214B9B6AD80707D52B68590703D0F9
:1052A80022491B4823F0FCF814241B4B9B6A9A06DE
:1052B80007D52B685B0703D01D49154823F0F0F884
:1052C8001524154B9A6AD50602D49A6A90070AD50E
:1052D8005B68190507D54146304600F03DFA10B124
:1052E80080F3098802240C4B9A6A920642BF5A6AD4
:1052F80022F400525A629A6A42F0FF029A6200232C
:105308003B702046BDE8F0876FF01506BBE700BF8D
:10531800780F0020A907040000ED00E0BF07040093
:1053280039060400F20704000A08040020080400F3
:10533800AD0604002DE9F041744B8AB0D3F804801F
:1053480000AF0446C8F30806002585F31188BFF3AB
:105358006F8F02F07F43B3F17F4F0AD102F00C0345
:10536800082B15D16A480368590702D0694923F008
:1053780097F800252C460023FB71F31E092B00F239
:105388009F80DFE803F00A91948D9D9D9D9D9D97D8
:1053980012074CBF0C460125EDE75D4E33685B07ED
:1053A80003D05D49304623F07BF80023FB71574B4F
:1053B800DA6A900708D53368590703D05749544823
:1053C80023F06EF800233CE0DA6A002A04DA336836
:1053D8005A07F7D05249F2E7DB6A5B00F2D5336827
:1053E800580703D04F494A4823F05AF8474BA16958
:1053F8005A6942F480725A61BFF34F8FBFF36F8FBF
:105408005A6931F8021C22F480725A61BFF34F8F37
:10541800BFF36F8F4DF60272914208D09A6AD2B2EA
:105428008AB3FA1D01212046FFF7E4FE3AE033680B
:10543800590705D023683C4A3548012121F062FD0F
:105448002368FA79DAB907F1080604F1200C206814
:105458006168324603C2083464451646F7D17A6A51
:10546800002D4DD0C2F3080121B96FEA52226FEA2C
:1054780042227A6207F108011846FFF725FD28370E
:10548800BD46BDE8F0819A6A12F47F4F04D0F91D39
:105498000120FFF7BDFD05E09B6AB3F5803F91D37E
:1054A800FFF73AFE0346CCE7FA1D0021BBE7F91DDA
:1054B8000020EEE7164803685A0783D01B497FE7A8
:1054C800134803685B073FF47DAF194A194B18F47A
:1054D800F87FE8468AB018BF13466A461649C2E9FB
:1054E80005134FF400731384103E144BD66142F831
:1054F800103F00234FF41151FCF732FEC54661E717
:1055080022F4FF7222F00102B3E700BF00ED00E0D1
:10551800780F00206D08040098080400AF08040004
:10552800D0080400DE080400FD080400190904007E
:10553800540804003F0804003D0904000400000169
:10554800044B5A6942F010025A615A6922F0080263
:105558005A61704700ED00E0EFF30880EFF309812E
:1055680001B57246FFF7E6FE01BD00BF0E4880F3A5
:105578000888202080F311880C484FF0AA014FF4C6
:10558800046228F0A3FB09484FF40461401880F333
:105598000988EFF314800221084380F31488BFF3CD
:1055A8006F8F00F0A1F80000C01D0120000A012043
:1055B800BFF34F8F0549064BCA6802F4E0621343F4
:1055C800CB60BFF34F8F00BFFDE700BF00ED00E0E9
:1055D8000400FA05084B9B6883420BD1EFF305835F
:1055E80043B1064B5A6842F080525A605A6A22F414
:1055F80000425A620CF0CAB890BE002000ED00E0EC
:1056080015498A684FF030001044EFF3098C80E8A0
:10561800F01F202080F31288BFF36F8F0F4F4FF0D9
:1056280000668A698A603E60D2F8A8000C4C206047
:10563800D2F8AC000023C2F8AC3080F3118804B56E
:10564800104600F0FBF8BDE8044002F1300090E895
:10565800F01F8CF30988704790BE002004ED00E02D
:10566800509600201EF0040F0CBFEFF30880EFF3F4
:105678000980816911F8021C0229FFD001B5724620
:1056880022F003FF01BD00BF0028ACBF00F160405D
:10569800064B4FEA4111ACBF00F5614000F00F0026
:1056A800C9B2B4BF195480F80013704714ED00E074
:1056B80040B2002807DB044A4109012300F01F001B
:1056C800834042F82130704700E100E0044B054A6E
:1056D80023F07F039360BFF34F8FBFF36F8F704743
:1056E8000000000000ED00E008B5FFF7EFFF0B4AEF
:1056F800D2F8883023F47003C2F88830EFF31483AB
:1057080023F0040383F31488BFF36F8F0AF0D4FFE8
:105718000CF0D0F900F05EF80BF024F800ED00E092
:1057280042F8203C009B42F81C3C0A49019B42F885
:10573800183C029B42F8143C21F001014FF08073A1
:1057480042F8043C42F8081C0023203A0265C0F8DD
:10575800AC307047790D00000A4A0346906878B16A
:1057680013F1160FD0F8980005D0A0F140029A4224
:1057780005D8834203D2814228BF00207047002009
:10578800704700BF90BE002008B515460A4A0B4B6B
:105798009060D0F8A8201A600E4600F04FF82C460A
:1057A80086F309880020064B9847204600210022EE
:1057B8000023044C204700BF90BE002050960020D4
:1057C800DB840200790D0000014B10221A6170473A
:1057D80000ED00E0044800232021C2180133262BE5
:1057E80082F80013F9D1704700E100E008B572B6FD
:1057F8000A4B5A691AB100225A61FCF7A3FF62B634
:10580800EFF30583064A103B02EBC30152F833005D
:1058180049688847BDE80840FFF7EABB90BE00200A
:10582800C40D0020024B034A0348012100F092B83E
:1058380000400220000000206CD90300D0F8982016
:10584800054B403A1A60054A4021C3E9011218463F
:10585800012100F089B800BF5496002000000B1504
:1058680008B503461148D0F89020C2F30722013A40
:1058780093420AD90E480268520703D00D4A012103
:1058880021F040FB6FF0150008BDC0F898300A6899
:1058980022F01F021A4342F01002C0F89C208A68C6
:1058A80042F00102C0F8A0201846EDE700ED00E044
:1058B800640F002054090400F0B50E4685B01F4659
:1058C80004460025B54210DA606828B3AFB1431E1C
:1058D80018420DD0124803685B0704D0114A2B46C2
:1058E800012121F00FFB6FF01502104605B0F0BD45
:1058F8001F28EFD921680B42ECD12368019322F0CD
:10590800FCFDA36801A90343D0B20393FFF7A8FFE6
:1059180010F1160FE7D0421C01350C34D2E700BF56
:10592800640F00207A090400044B0522C3F8942070
:10593800BFF34F8FBFF36F8F704700BF00ED00E0DC
:10594800BFF35F8F024B0022C3F89420704700BF5B
:1059580000ED00E010B5034C01232278FFF7ACFFFF
:10596800207010BD6BC0002008B50B4A00231278C8
:10597800FFF7A2FF10F1160F07D0084A0021D2F84E
:105988009030C3F30723984200DB08BDC2F89800A3
:10599800C2F8A0100130F2E76BC0002000ED00E073
:1059A8002DE9F04357485849D0F890300D68C3F3B3
:1059B80007239D4285B000F2A180FFF7C1FF496827
:1059C8000022954201F10C011AD1504C504F25701C
:1059D8006846FCF78FFEDFF83C81DFF83C9106460D
:1059E8000025AE421FD1237846490020D1F89020E7
:1059F800C2F3072293427BDBFFF796FF00204CE0BF
:105A0800C0F8982051F80C3C23F01F03134343F0CF
:105A18001003C0F89C3051F8043C43F00103C0F86F
:105A2800A0300132CDE7009800EB05114FEA051CC4
:105A3800CB683B40B3F5000F44D00AD8B3F5001F3C
:105A48002ED0B3F5800F34D0B3F5801F10D00135B8
:105A5800C7E7B3F1807F3ED0B3F1007FF7D150F8AC
:105A68000C3088684A6822F048FD40F4802009E03C
:105A780050F80C3088684A6822F03FFD40F08850A2
:105A880040F43020039001A92078CDE90123FFF7E5
:105A9800E7FE002828DA6FF0150005B0BDE8F083AE
:105AA80050F80C3088684A6822F027FD40EA080060
:105AB800E8E750F80C3088684A6822F01EFD40EA92
:105AC8000900DFE750F80C3088684A6822F015FDB5
